:020000040800F2
:10000000380F0020890500087502000877020008F3
:10001000830200088F0200089B0200080000000015
:10002000000000000000000000000000A70200081F
:10003000A9020008000000009F050008AB020008AC
:10004000A3050008A3050008A3050008AF020008E7
:10005000A3050008A3050008AD020008931B0008D3
:10006000A3050008A3050008A3050008A3050008D0
:10007000A3050008A3050008A3050008A3050008C0
:10008000A3050008A3050008A3050008A3050008B0
:10009000A3050008A3050008A3050008A3050008A0
:1000A000A3050008A3050008A3050008A305000890
:1000B000A3050008A3050008A3050008A305000880
:1000C000A3050008A3050008A3050008A305000870
:1000D000A3050008751A000881260008A30500087A
:1000E000A3050008A3050008A305000800F002F816
:1000F00000F0B0F80AA090E8000C82448344AAF112
:100100000107DA4501D100F0A5F8AFF2090EBAE80F
:100110000F0013F0010F18BFFB1A43F0010318473B
:10012000485E0000685E00000A444FF0000C10F8C2
:10013000013B13F0070408BF10F8014B1D1108BF65
:1001400010F8015B641E05D010F8016B641E01F805
:10015000016BF9D113F0080F1EBF10F8014BAD1C55
:100160000C1B09D16D1E58BF01F801CBFAD505E073
:1001700014F8016B01F8016B6D1EF9D59142D6D3CD
:10018000704700000023002400250026103A28BFF5
:1001900078C1FBD8520728BF30C148BF0B607047F9
:1001A0006E2903F0D080702902F00387662905F0DC
:1001B0004C82652905F04982672905F0468261294C
:1001C00005F0458203681B0A28BF41F080016929B8
:1001D00002F07486642902F07186752902F06E8639
:1001E0006F2903F0CB83782902F0CF86E92903F049
:1001F0006583E42903F06283F52903F05F83EF2927
:1002000003F0C883F82902F0CE860368DB0928BF13
:1002100041F08001632903F0E682732903F0EB8249
:10022000E32903F0D785F32903F0DC85002070472C
:100230001FB503F0BDFB04000020002104F0ACFA60
:10024000401C60600020002104F0BCFAE0601FBD8B
:1002500010B510BD03F059FE1146FFF7E9FF02F09B
:100260007CF803F077FE03B4FFF7F2FF03BC03F062
:10027000B7FE000070470EA11C4801F0D7FB00BF7D
:10028000FEE71BA1194801F0D1FB00BFFEE727A143
:10029000164801F0CBFB00BFFEE733A1134801F085
:1002A000C5FB00BFFEE77047704770477047704757
:1002B0000D0A2A2A2A2A2A2A2A2A2A2A2A2A2A2ADB
:1002C0002A2A2A2A2A486172644661756C745F483A
:1002D000616E646C65722A2A2A2A2A2A2A2A2A2A04
:1002E0002A2A2A2A2A2A2A2A2A0D0A000038014004
:1002F0000D0A2A2A2A2A2A2A2A2A2A2A2A2A2A2A9B
:100300002A2A2A2A2A4D656D4D616E6167655F480C
:10031000616E646C65722A2A2A2A2A2A2A2A2A2AC3
:100320002A2A2A2A2A2A2A2A2A0D0A000D0A2A2AD1
:100330002A2A2A2A2A2A2A2A2A2A2A2A2A2A2A2A1D
:100340002A4275734661756C745F48616E646C65B2
:10035000722A2A2A2A2A2A2A2A2A2A2A2A2A2A2AB5
:100360002A2A2A2A0D0A00000D0A2A2A2A2A2A2ABB
:100370002A2A2A2A2A2A2A2A2A2A2A2A2A55736132
:1003800067654661756C745F48616E646C65722A5E
:100390002A2A2A2A2A2A2A2A2A2A2A2A2A2A2A2ABD
:1003A0002A2A0D0A000000000CB5002001900090E0
:1003B0006C48006840F480306A49086000BF6948B2
:1003C000006800F4003000900198401C01900098F3
:1003D00018B90198B0F5A06FF1D16248006800F437
:1003E000003010B10120009001E000200090009842
:1003F000012843D15C48006840F010005A49086069
:100400000846006820F0030008600846006840F0D5
:1004100002000860534840685249486008464068F6
:1004200048600846406840F480604860084640687C
:1004300020F47C1048600846406840F4E8104860AA
:100440000846006840F08070086000BF45480068BA
:1004500000F000700028F9D04248406820F0030006
:10046000404948600846406840F00200486000BFCC
:100470003C48406800F00C000828F9D10CBD10B5CC
:10048000FFF792FF10BD10B53648006840F001003C
:10049000344908600846406834490840314948609A
:1004A00008460068324908402E490860084600683E
:1004B00020F4802008600846406820F4FE00486070
:1004C0004FF41F008860FFF7DAFF4FF00060294902
:1004D000086010BD10B5002100200022214B5B6890
:1004E00003F00C0121B1042906D0082928D107E026
:1004F000214B224C236027E01F4B204C236023E03C
:10050000184B5B6803F47010164B5B6803F4803281
:10051000022303EB904022B9194B4343174C23604D
:100520000DE0104B5B6803F4003323B1144B4343DD
:10053000124C236003E0104B4343104C236003E054
:100540000D4B0E4C236000BF00BF064B5B68C3F32E
:1005500003130C4CE15C094B1B68CB40074C236038
:1005600010BD000000100240002002400000FFF813
:10057000FFFFF6FE08ED00E000127A000000002008
:1005800000093D0004000020094880470948004751
:10059000FEE7FEE7FEE7FEE7FEE7FEE7FEE7FEE733
:1005A000FEE7FEE704480549054A064B7047000090
:1005B00087040008ED00000838050020380F0020EF
:1005C000380700203807002031490143314A1160C3
:1005D000704770B5002100230F22C47804B32D4C5E
:1005E000246804F4E064C4F5E064210AC1F1040362
:1005F000CA40447804FA03F1847814402143090185
:10060000254C0678A155047804F01F050124AC4060
:1006100005786D11AD0005F1E025C5F8004109E050
:10062000047804F01F050124AC401C4D06787611B7
:1006300045F8264070BD1A4A0A400243154B1B1F5D
:100640001A60704739B1134A121D12680243114BE8
:100650001B1D1A6006E00F4A121D126882430D4BE3
:100660001B1D1A607047042808D14FF0E02109696A
:1006700041F004014FF0E022116107E04FF0E0216A
:10068000096921F004014FF0E02211617047000078
:100690000000FA050CED00E000E400E080E100E07D
:1006A00080FFFF1F10B50446CC48844208D10121C9
:1006B000042000F02DFB0021042000F029FB46E07F
:1006C000C748844208D10121082000F021FB002105
:1006D000082000F01DFB3AE0C248844208D1012105
:1006E000102000F015FB0021102000F011FB2EE07F
:1006F000BD48844208D10121202000F009FB0021DF
:10070000202000F005FB22E0B848844208D10121F6
:10071000402000F0FDFA0021402000F0F9FA16E038
:10072000B348844208D10121802000F0F1FA002171
:10073000802000F0EDFA0AE0AE48844207D10121A2
:10074000801500F0E5FA0021A01500F0E1FA10BDD7
:1007500010B50121084600F0DBFA0021012000F06D
:10076000D7FA10BD2DE9F0410246002500260020F1
:1007700000230024002791F803C00CF00F0591F826
:1007800003C00CF0100CBCF1000F03D091F802C0B4
:100790004CEA050591F800C0BCF1000F31D0146897
:1007A00000202BE04FF0010C0CFA00F3B1F800C070
:1007B0000CEA03069E4220D183004FF00F0C0CFA86
:1007C00003F7BC4305FA03FC4CEA040491F803C0A8
:1007D000BCF1280F06D14FF0010C0CFA00FCC2F856
:1007E00014C00AE091F803C0BCF1480F05D14FF0E6
:1007F000010C0CFA00FCC2F810C0401C0828D1D330
:100800001460B1F800C0BCF1FF0F34DD5468002063
:100810002EE000F1080C4FF0010808FA0CF3B1F8D3
:1008200000C00CEA03069E4221D183004FF00F0C5A
:100830000CFA03F7BC4305FA03FC4CEA040491F8F4
:1008400003C0BCF1280F05D100F1080C08FA0CF820
:10085000C2F8148091F803C0BCF1480F07D100F131
:10086000080C4FF0010808FA0CF8C2F81080401C80
:100870000828CED35460BDE8F0814FF6FF710180A7
:10088000022181700421C1707047024600209368E4
:100890000B400BB1012000E0002070470146886842
:1008A00080B2704702460020D3680B400BB1012094
:1008B00000E0002070470146C86880B270470161BF
:1008C0007047416170470AB1016100E041617047C2
:1008D000C16070474FF480320A4382618161826156
:1008E00082698269704702460020434B18684FF6C0
:1008F0008073184040EA021008433F4B186070476D
:100900003E49C8617047F0B50A4600230024002123
:10091000002500F00046B6F1004F02D1364EF169D5
:1009200001E0354E7168C0F3034583B200F4401610
:10093000B6F5401F08D121F070612F4E766826F081
:1009400070662D4F7E6012E000F48016B6F5801FB1
:1009500006D1032606FA05F4A14341F0706106E0D2
:10096000460D360103FA06F6B14341F0706122B13B
:10097000460D360103FA06F6314300F00046B6F1A3
:10098000004F02D11C4EF16101E01B4E7160F0BDC1
:1009900030B500228B071C0F0F2303FA04F2164B0D
:1009A00008338C1053F824309343134C08348D10C3
:1009B00044F8253023468C1053F824308C07240F3C
:1009C00000FA04F423430C4C08348D1044F825300D
:1009D00030BD0A49DC310860704700000008014062
:1009E000000C0140001001400014014000180140BB
:1009F000001C014000200140000001400000204296
:100A0000DF48006840F00100DD49086008464068A2
:100A1000DC490840DA49486008460068DA4908407D
:100A2000D74908600846006820F48020086008461E
:100A3000406820F4FE0048604FF41F008860704753
:100A4000CF49096821F48031CD4A11601146096807
:100A500021F480211160B0F5803F03D0B0F5802FE4
:100A60000ED106E0C649096841F48031C44A1160DC
:100A700007E0C349096841F4A021C14A116000E0C0
:100A800000BF00BF704710B50146002200230020C0
:100A90004A11012A02D1BA4C236806E0022A02D187
:100AA000B74C236A01E0B64C636A01F01F020124CF
:100AB00094401C400CB1012000E0002010BD38B56E
:100AC000002000900024002500BF3120FFF7DBFF4D
:100AD00005460098401C00900098B0F5A06F01D02A
:100AE000002DF2D03120FFF7CEFF08B1012400E045
:100AF0000024204638BD01460020A14A106820F09D
:100B0000F80040EAC10010607047A04908607047D3
:100B1000024600209A4B586820F47C1042EA0103F8
:100B20001843974B586070479849086670470146CC
:100B30000020934A506820F003000843506070473B
:100B40008F48406800F00C007047014600208C4A36
:100B5000506820F0F00008435060704701460020C4
:100B6000874A506820F4E0600843506070470146AF
:100B70000020834A506820F4605040EAC100506071
:100B8000704729B17E4A527A02437D4B5A7204E083
:100B90007B4A527A82437A4B5A7270477B49D831EA
:100BA0000860704701460020754A506820F44040B4
:100BB0000843506070470021714A20321170704A1A
:100BC00082F82010012802D004280AD104E0012173
:100BD0006B4A2032117005E00521694A20321170FC
:100BE00000E000BF00BF7047694908607047644972
:100BF000096A0143624A11627047654944390860D5
:100C0000704730B500210022002400235C4D6D6840
:100C100005F00C0121B1042905D0082923D105E0F4
:100C20005C4D056022E05B4D05601FE0544D6D6832
:100C300005F47012524D6D6805F48034022505EB01
:100C400092421CB9544D554305600BE04C4D6D6804
:100C500005F400351DB1504D5543056002E04D4D82
:100C60005543056002E04B4D056000BF00BF444D99
:100C70006D6805F0F0010909484D6B5C0568DD40C1
:100C800045603F4D6D6805F4E061090A434D6B5CBA
:100C90004568DD4085603A4D6D6805F46051C90ACC
:100CA0003E4D6B5C4568DD40C560354D6D6805F4B3
:100CB0004041890B3A4D6B5CC568B5FBF3F50561A6
:100CC00030BD29B12E4A526902432D4B5A6104E0CE
:100CD0002B4A526982432A4B5A61704729B1284AEC
:100CE00092690243264B9A6104E0254A9269824345
:100CF000234B9A61704729B1214AD2690243204BA4
:100D0000DA6104E01E4AD26982431D4BDA61704702
:100D100029B11B4AD2680243194BDA6004E0184A31
:100D2000D2688243164BDA60704729B1144A1269BF
:100D30000243134B1A6104E0114A12698243104BBB
:100D40001A61704712494039086070470F49C864FA
:100D500070470B49C87170470948406A40F080707D
:100D600007494862704701460020054A92680A40D8
:100D70000AB1012000E000207047014988727047E5
:100D8000001002400000FFF8FFFFF6FE00004242A4
:100D90008004424200127A0000093D001400002045
:100DA0002400002010B50446FB48844209D10121EB
:100DB0008803FFF7ADFF00214FF48040FFF7A8FF45
:100DC00032E0F648844209D101214804FFF7ADFF23
:100DD00000214FF40030FFF7A8FF25E0F0488442DF
:100DE00009D101218804FFF7A0FF00214FF48020E2
:100DF000FFF79BFF18E0EB48844209D10121C804AA
:100E0000FFF793FF00214FF40020FFF78EFF0BE068
:100E1000E548844208D101210805FFF786FF00213B
:100E20004FF48010FFF781FF10BD2DE9F04786B029
:100E300005460E460024A24600BFA1460027B08901
:100E400000B100BF2F462C8A4CF6FF700440F0889A
:100E500004432C82AC894EF6F3100440B0883189EB
:100E60000843718908430443AC81AC8A4FF6FF40C4
:100E70000440B0890443AC8201A8FFF7C2FEC64813
:100E8000874202D1DDF810A001E0DDF80CA0A889AE
:100E900000F4004040B10AEBCA0000EB0A103168D0
:100EA0004900B0FBF1F807E00AEBCA0000EB0A10BA
:100EB00031688900B0FBF1F86420B8FBF0F0040160
:100EC0002009642101FB1089A88900F4004040B189
:100ED000322000EBC900B0FBF1F000F00700044342
:100EE00008E0322000EB09106421B0FBF1F000F0C3
:100EF0000F0004432C8106B0BDE8F0874FF4165173
:100F0000016000218180C18001810C21418100218B
:100F10008181704710B502460020108A4FF2FF030E
:100F200018400B884C8823438C882343CC88234368
:100F30001843108210BD0021018041808180C18052
:100F4000704721B1828942F40052828104E0828993
:100F50004DF6FF731A4082817047F0B503460024B6
:100F600000260025002040F66A17B94200D100BFD4
:100F70001846C1F3421401F01F06012707FA06F5CF
:100F8000012C01D10C3004E0022C01D1103000E022
:100F900014301AB107682F43076002E00768AF43B7
:100FA0000760F0BD1AB1838A0B43838202E0838A13
:100FB0008B4383827047028A4FF6F0731A40028295
:100FC000028A0A430282704782894FF2FF731A40F5
:100FD000828182890A438281704721B1828942F0ED
:100FE0000202828104E082894FF6FD731A408281F9
:100FF0007047028A4FF6DF731A400282028A0A4360
:101000000282704721B1028A42F48042028204E0E7
:10101000028A4BF6FF731A4002827047C1F308023E
:101020008280704701468888C0F308007047818934
:1010300041F0010181817047028BD2B20283028BA1
:1010400042EA012202837047028B02F47F4202834C
:10105000028B0A430283704721B1828A42F0200248
:10106000828204E0828A4FF6DF731A4082827047E0
:1010700021B1828A42F01002828204E0828A4FF615
:10108000EF731A408282704721B1828A42F00802CF
:10109000828204E0828A4FF6F7731A408282704798
:1010A00021B1828942F40042828103E08289C2F345
:1010B0000E028281704721B1828A42F400628282EC
:1010C00004E0828A4FF2FF731A4082827047828A5C
:1010D0004FF6FB731A408282828A0A4382827047EB
:1010E00021B1828A42F00202828204E0828A4FF6B3
:1010F000FD731A408282704702460020B1F5007FDE
:1011000000D100BF13880B400BB1012000E000208C
:10111000704701F40072B2F5007F00D100BFCA43EE
:101120000280704770B5024600240023002500208D
:1011300040F66A16B14200D100BFC1F3421501F07A
:101140001F03012606FA03F3012D02D196893340CD
:1011500006E0022D02D1168A334001E0968A334020
:101160000C12012606FA04F41688344013B10CB1AF
:10117000012000E0002070BD10B50022002340F6E1
:101180006A14A14200D100BF0A1201249440A3B204
:10119000DC43048010BD00000038014000440040E2
:1011A00000480040004C00400050004000204449EE
:1011B0000860091D0860091D0860091D0860414894
:1011C0003F4914310860704700213D498279002A67
:1011D0003AD00A46126803689A430B461A600A1D01
:1011E000126803689A430B1D1A60027911440A6859
:1011F00003681A430A60324A0832126803689A4345
:101200002F4B08331A601A1D126803689A432C4B3F
:101210000C331A604279102A0ED11A1F1268036823
:101220001A43274B08331A601A1D126803681A43C1
:10123000234B0C331A600DE02149427911440A68AE
:1012400003681A430A6005E0027911440A680368DA
:101250009A430A6070470021016001710C214171BD
:101260000021817170471649103109680143144A01
:1012700010321160704701460020114A1432126882
:101280000A400AB1012000E0002070470C491431E7
:1012900008607047014600200022094B1B6803EAE2
:1012A0000102074B14331B680B4013B10AB1012034
:1012B00000E00020704702491431086070470000C8
:1012C00000040140FFFF0F0010B50446FA488442B5
:1012D00008D101214015FFF71BFD00216015FFF724
:1012E00017FD17E0F548844208D101210015FFF7EA
:1012F0000FFD00212015FFF70BFD0BE0F0488442A5
:1013000008D10121C803FFF703FD00214FF400407D
:10131000FFF7FEFC10BD30B50246002000235068E8
:10132000E84C20400D790C6844EA052420435060C5
:101330009068E54C2040D1E902542C434D7944EAB1
:10134000450420439060D06A20F470000C7C641E39
:10135000E4B2234340EA0350D06230BD0021016073
:10136000017141718160C16001210174704721B137
:10137000826842F00102826003E0826822F001028A
:101380008260704721B1826842F48072826003E01B
:10139000826822F480728260704710B50023CBB25D
:1013A0001AB144681C43446002E044689C434460B2
:1013B00010BD816841F0080181607047014600203E
:1013C0008A6802F008020AB1012000E0002070479C
:1013D000816841F0040181607047014600208A68FD
:1013E00002F004020AB1012000E00020704721B1A0
:1013F000826842F4A002826003E0826822F4A002C4
:1014000082607047014600208A6802F480020AB1B7
:10141000012000E00020704710B50A46002100239B
:10142000416821F46041531E41EA4331416010BDDF
:1014300021B1426842F40062426003E0426822F453
:10144000006242607047F0B504460D46002000215E
:10145000092D11DDE068A5F10A0606EB460707260F
:1014600006FA07F18843A5F10A0606EB460603FAD9
:1014700006F10843E0600CE0206905EB450707260C
:1014800006FA07F1884305EB450603FA06F108431F
:101490002061072A0FDA606B561E06EB86071F26AF
:1014A00006FA07F18843561E06EB860605FA06F192
:1014B0000843606322E00D2A0FDA206BD61F06EB8B
:1014C00086071F2606FA07F18843D61F06EB860615
:1014D00005FA06F10843206310E0E06AA2F10D0668
:1014E00006EB86071F2606FA07F18843A2F10D06D0
:1014F00006EB860605FA06F10843E062F0BD21B16D
:10150000826842F48012826003E0826822F48012D2
:10151000826070470146C86C80B2704766484C30A4
:101520000068704721B1426842F48062426003E083
:10153000426822F480624260704721B1426842F4FE
:101540008052426003E0426822F480524260704759
:101550000A460021816821F4E0411143816070470F
:1015600021B1826842F40042826003E0826822F482
:1015700000428260704721B1826842F402128260A8
:1015800003E0826822F40212826070470146002064
:101590008A6802F400120AB1012000E000207047BE
:1015A000F0B504461546002000220026092911DD69
:1015B000E068A1F10A0707EB470C072707FA0CF2CE
:1015C0009043A1F10A0707EB470703FA07F210431C
:1015D000E0600CE0206901EB410C072707FA0CF2F0
:1015E000904301EB410703FA07F210432061A06B1F
:1015F000C0F30156EF1C06F1010CA7EB0C0707EB3B
:10160000870C1F2707FA0CF29043EF1C06F1010C20
:10161000A7EB0C0707EB870701FA07F21043A0635B
:10162000F0BD10B50A4600210023816B21F4401162
:10163000531E41EA0351816310BD08B50023009396
:101640000090009B0B440093009B1A6008BD08B5F6
:10165000024600200090009201F12800009B1844EF
:1016600000900098006880B208BD0A4600214168D9
:10167000164B1940114341607047416282627047C6
:101680000A460021416821F01F0111434160704763
:1016900040B109490831096841F40001064A08329D
:1016A000116007E004490831096821F40001024A89
:1016B00008321160704700000024014000280140FA
:1016C000003C0140FFFEF0FFFDF7F1FFFFFD3FFF93
:1016D0000246002013680B400BB1012000E00020FF
:1016E0007047CA430260704770B50246002000236D
:1016F00000240B125568CEB205EA060415681D4099
:1017000015B10CB1012000E0002070BD00220A12CA
:10171000D3430360704700004FF0E020006920F0E1
:1017200004004FF0E021086109203649087008469E
:10173000007800EB4001C1EBC0104FF6FF7101EAE9
:10174000C000314908807047002120F07F402D4AB9
:10175000127842434FF0E0235A6100229A6101223D
:101760001A6100BF4FF0E022116901F001021AB1C5
:1017700001F48032002AF5D000224FF0E0231A61F4
:101780009A617047002100B9704720F07F401E4ADF
:10179000128842434FF0E0235A6100229A610122ED
:1017A0001A6100BF4FF0E022116901F001021AB185
:1017B00001F48032002AF5D000224FF0E0231A61B4
:1017C0009A6100BFE0E770B50446002600254FF49B
:1017D000FA7094FBF0F0C6B24FF4FA7094FBF0F19B
:1017E00000FB114085B205E04FF4FA70FFF7CAFF25
:1017F000701EC6B2002EF7D115B12846FFF7C2FF02
:1018000070BD0000280000202A00002010B586B01E
:10181000044601210420FFF761FA01218803FFF744
:101820005DFA18208DF817004FF40070ADF8140021
:1018300003208DF8160005A99448FEF793FF0420B5
:101840008DF817000002ADF8140003208DF8160083
:1018500005A98E48FEF786FF01940020ADF8100020
:101860000C20ADF80E000020ADF80C00ADF80A0019
:10187000ADF8080001A98648FFF7D7FA012184488E
:10188000FFF75FFB012240F225518148FFF765FB1E
:1018900025208DF8000001208DF8030000208DF830
:1018A000010002208DF802006846FEF792FE06B0A5
:1018B00010BD10B586B0044601210420FFF70EFAD2
:1018C00001214804FFF717FA18208DF817000420AB
:1018D000ADF8140003208DF8160005A96B48FEF73B
:1018E00041FF04208DF817000820ADF814000320F4
:1018F0008DF8160005A96548FEF734FF0194002015
:10190000ADF810000C20ADF80E000020ADF80C0072
:10191000ADF80A00ADF8080001A95E48FFF785FAA6
:1019200001215C48FFF70DFB012240F22551594887
:10193000FFF713FB26208DF8000001208DF803002F
:1019400000208DF801008DF802006846FEF741FE88
:1019500006B010BD10B586B0044601210820FFF77F
:10196000BDF901218804FFF7C6F918208DF817008A
:101970004FF48060ADF8140003208DF8160005A91F
:101980004548FEF7EFFE04208DF817004002ADF841
:10199000140003208DF8160005A93F48FEF7E2FE6B
:1019A00001940020ADF810000C20ADF80E000020CE
:1019B000ADF80C00ADF80A00ADF8080001A93748F1
:1019C000FFF733FA01213548FFF7BBFA012240F255
:1019D00025513248FFF7C1FA27208DF80000012079
:1019E0008DF8030000208DF8010003208DF802001F
:1019F0006846FEF7EEFD06B010BD2DE9F041074642
:101A00000C46154600260DE014F8011B3846FFF77A
:101A100005FB00BF40213846FFF76EFB0028F9D0D8
:101A2000701C86B2AE42EFDBBDE8F0810FB430B57A
:101A3000CBB0054601AC50A800904FF4947101A8BA
:101A4000009B4F9A01F0BAF9002000900BE014F8C7
:101A5000011B2846FFF7E2FA00BF40212846FFF7A6
:101A60004BFB0028F9D020780028F0D14BB030BCD7
:101A70005DF814FB10B540F225510548FFF752FB05
:101A800018B120210248FFF744FB10BD00080140B7
:101A90000038014000440040000C01400048004074
:101AA00010B5044684F001024FF400511A48FEF7C5
:101AB0000AFF1A48047010BD08B501211020FFF775
:101AC0000DF910208DF803004002ADF8000003204E
:101AD0008DF8020069461048FEF744FE0020FFF72B
:101AE000DFFF08BD08B501210820FFF7F7F8102037
:101AF0008DF803004FF4E040ADF8000003208DF8AE
:101B0000020069460648FEF72DFE4FF4E041044806
:101B1000FEF7D5FE08BD0000001001402C0000209B
:101B2000000C01401FB501210420FFF7D7F8012167
:101B30000846FFF7D3F848208DF80F000220ADF8D3
:101B40000C0003208DF80E0003A91E48FEF70AFEC4
:101B500001210020FEF71CFF0220019000208DF8DB
:101B600008000C208DF8090001208DF80A0001A85A
:101B7000FFF72AFB07208DF8000002208DF80100F6
:101B80008DF8020001208DF803006846FEF721FD64
:101B90001FBD10B50A20FFF7F5FD02210948FEF729
:101BA00074FE50B908480078012803D10020FFF7DF
:101BB00077FF02E00120FFF773FF0220FFF77BFBB6
:101BC00010BD0000000801402C00002000B585B0C9
:101BD00001214802FFF782F84FF40040FEF7E2FFD0
:101BE0000020009003904FF46020029000208DF8B8
:101BF00005008DF8040001208DF810006946194891
:101C0000FFF789FB01211748FFF7B1FB1548FFF7E4
:101C1000D0FB00BF1348FFF7D1FB0128FAD01148D1
:101C2000FFF7D6FB00BF0F48FFF7D7FB0128FAD01C
:101C300005B000BD70B504460D462B460122214675
:101C40000848FFF700FC01210648FFF7D0FB00BF62
:101C500002210448FFF73CFD0028F9D00148FFF7B6
:101C600059FC70BD0024014008B501210420FFF794
:101C700035F80120ADF8000000208DF8030069461A
:101C80005248FEF76FFDFFF7A1FF08BD10B5052113
:101C90000020FFF7CFFF10BD70B50024002507E03E
:101CA000FFF7F4FF04440520FFF76CFD681CC5B284
:101CB0000A2DF5DB0A20B4FBF0F4A0B270BD2DE9CB
:101CC000F04F8FB04FF0000A00240EE0FFF7DEFF68
:101CD000064603F081FB0546514603F015FA82469D
:101CE0000520FFF74FFD601CC4B20A2CEEDB38491B
:101CF000504603F077FA8246504603F0D9F906467B
:101D00000022344B02F04EFE80464FF06632324BDA
:101D100002F0E6FF044602F06BFD8346584603F0EE
:101D2000C7F904464FF033322C4B02F0D9FFCDE90E
:101D30000A01584603F0BCF904460D46584603F024
:101D4000B7F98046264A274B02F0CAFF06462246CC
:101D50002B4602F0C5FFCDE90601584603F0A8F96D
:101D600080468946584603F0A3F9CDE9000158465C
:101D700003F09EF906461C4A1C4B02F0B1FF0446D4
:101D8000DDE9002302F0ACFF42464B46CDE90201FB
:101D900002F0A6FFCDE90401DDE9062303F09EF879
:101DA000CDE90801DDE90A2302F054FDCDE90C017B
:101DB00002F01EFD83460E49584603F021FB01D276
:101DC0004FF0000B58460FB0BDE8F08F00080140FF
:101DD0000000204100FEAF4066660A4033CB7A40E7
:101DE000EC51B81E85FB5F403D0AD7A370AD504053
:101DF0000000A04108B501210820FEF76FFF012077
:101E0000ADF8000010208DF8030003208DF80200CB
:101E100069463C48FEF7A6FC0220ADF800004820C9
:101E20008DF8030069463748FEF79CFC01213548D0
:101E3000FEF745FD08BD70B5012033490860FFF786
:101E400083FC00203149C1F88001002400BF2E48E6
:101E500000680028FBD1002513E001202A497C31CD
:101E600008606400FFF770FC00202849C1F8800179
:101E70002548006800B1641C0120FFF765FC681C60
:101E8000C5B2182DE9DB01201F497C31086084F4BC
:101E90000004FFF759FC00201C49C1F880012046CE
:101EA00070BD10B5FFF7C7FF1949086010BD2DE9D7
:101EB000F041FFF7C0FF1749086008460068144961
:101EC000096888421BD9134800681349086008460E
:101ED00000680F490968401A0F4908600846006801
:101EE00003F062FA804603F0E3F8064600220B4B4B
:101EF00002F058FD044602F0ADFE07490860BDE857
:101F0000F0810000000C0140048121420080214248
:101F100034000020300000203800002000387B40D2
:101F2000012080F3138800BF00BFC548006800F49B
:101F3000E060C4490843001DC1490860BFF3408FF9
:101F400000BF00BFFEE708B54FF48050ADF80000B9
:101F500003208DF8020014208DF803006946BA486A
:101F6000FEF700FC08BD10B5FFF7EDFF00224FF4AF
:101F70008051B548FEF7A7FC40F2EE20FFF7E4FBE6
:101F800001221103B048FEF79EFC0F20FFF7DCFB97
:101F900010BD08B54FF48050ADF8000003208DF857
:101FA000020004208DF803006946A748FEF7DAFB1B
:101FB00008BD10B50024FFF7ECFF04E0601CC4B2BC
:101FC0000120FFF7C1FB4FF480519F48FEF75DFCF5
:101FD00008B1C82CF2DBC82C01DB012010BD0024A5
:101FE00004E0601CC4B20120FFF7AEFB4FF4805147
:101FF0009548FEF74AFC08B9F02CF2DBF02C01DB27
:102000000120EBE70020E9E710B5FFF79CFF002275
:102010004FF480518C48FEF756FC0220FFF794FBEA
:10202000012211038848FEF74EFCFFF7B2FF0C2097
:10203000FFF78AFB4FF480518348FEF726FC08B176
:10204000012400E000243220FFF77EFB204610BD73
:1020500070B50026012508E0FFF7D6FF0446E00131
:1020600040EA6600C6B2681CC5B2082DF4DD3046F1
:1020700070BD70B50446FFF766FF012528E004F047
:10208000010664108EB100224FF480516E48FEF7B5
:102090001AFC0220FFF758FB012211036A48FEF7E1
:1020A00012FC3C20FFF750FB10E000224FF480515F
:1020B0006548FEF708FC3C20FFF746FB01221103B0
:1020C0006148FEF700FC0220FFF73EFB681CC5B22A
:1020D000082DD4DD70BD10B5FFF745FFFFF769FF90
:1020E000CC20FFF7C6FF4420FFF7C3FF10BD08B5A3
:1020F00001210420FEF7F2FD4FF48050ADF80000FE
:1021000010208DF8030003208DF8020069464E4828
:10211000FEF728FB4FF480514B48FEF7D0FBFFF74A
:1021200022FFFFF746FF08BD2DE9F84FFFF7D3FF69
:10213000FFF719FFFFF73DFFCC20FFF79AFFBE2006
:10214000FFF797FFFFF784FF8346FFF781FF044601
:10215000072C08DDE043C4B26FEA0B0000F0FF0B70
:102160004FF0000A01E04FF0010AA1464FEA0920B2
:102170000FFA80F909EB0B000FFA80F9484603F0DB
:1021800013F9009002F094FF074600222F4B02F053
:10219000A7FD054602F05EFD0FFA80F9BAF1000FC7
:1021A00002D04846BDE8F88FC9F1000000B2F9E757
:1021B00010B5002405E0601CC4B2F02C01D1FFF77B
:1021C000AFFEFFF794FF0028F5D110BD2DE9F041D7
:1021D00086B0FFF7A9FF0446002C15DA204602F06E
:1021E00068FD054600221A4B02F0DCFB07463A4622
:1021F0000B4618A101A800F0FBFD102301AA042141
:10220000062000F0BCFC14E0204602F052FD05461A
:1022100000220F4B02F0C6FB07463A460B4610A1C0
:1022200001A800F0E5FD102301AA0421062000F01A
:10223000A6FC4FF49670FFF7A5FA06B0BDE8F08152
:102240000CED00E00000FA05000801400000E43F4A
:10225000000024402D25322E3166A1E6000000004A
:102260002025322E3166A1E60000000038B5FFF7C8
:1022700026FD7849086078497648006803F0C0F880
:1022800003D20020754908601AE07349714800685C
:1022900003F035F90AD872496E48006803F0B0F8C7
:1022A00004D200206D49091D086009E06D496948A4
:1022B000006803F024F903D800206849091F08606A
:1022C0006448006803F050F80446102004232246B6
:1022D00002210090012000F00EFCFFF7E8FD6248AB
:1022E0000068624908601020042300905E480621BF
:1022F0000268012000F0FFFBFFF768FF38BD10B552
:102300004FF4A060FEF760F9FFF706FA4FF4E130F2
:10231000FFF77CFA4FF4E130FFF7CBFA4FF4165099
:10232000FFF718FBFFF7FEFBFFF7C6FB00F0B6FC5C
:10233000FFF79AFCFFF75EFDFFF7D9FEFFF7D2FB30
:1023400000F043FB10234AA20021084600F017FCCE
:102350004FF47A70FFF737FA10BD00BF00BFFFF7E8
:10236000CEFF062247A14948FFF747FB4FF44870CC
:10237000FFF708FA092246A14448FFF73EFB04E0B4
:10238000FFF774FF0A20FFF71EFAF9E710B500F017
:102390001CFB01220021084600F014FC022200214F
:1023A000122000F00FFC00221146242000F00AFC4D
:1023B00003220021482000F005FC04220321002014
:1023C00000F000FC05220321122000F0FBFB00229C
:1023D0000321242000F0F6FB102330A20321482023
:1023E00000F0CDFB06221146002000F0EBFB072297
:1023F0000621122000F0E6FB00220621242000F036
:10240000E1FB10BD08B52648027826A1684600F019
:10241000EFFC10236A460021362000F0B0FB224872
:10242000027820A1684600F0E3FC10236A460321ED
:10243000362000F0A4FB1D48007828B108220621B0
:10244000362000F0BFFB04E009220621362000F010
:10245000B9FB08BD4000002000004842B481214281
:10246000000016430000964338000020480000207A
:10247000486172647761726520696E6974204F4BA0
:102480000000000041463A333000000000480040A0
:1024900041373A3030303031000000002500000074
:1024A0004C000020253264004D0000202C0000204C
:1024B00010B54FF40071824800F085FE002081497C
:1024C000088010BD7F48008808B9012070477D480A
:1024D00000887D490988884203D100207949088015
:1024E000F4E778480088784908800120EEE72DE974
:1024F000F04104460D46C826204600F045FE87B24E
:102500003A4621467148FFF778FA0FE0FFF7DAFF05
:1025100048B929466A4800F025FE20B1FFF7C8FFF8
:102520000020BDE8F0810A20FFF72CF93000A6F169
:102530000101CEB2EAD10120F3E730B589B00446FB
:102540000D46FFF7B5FF2A4661A101A800F050FC37
:1025500063A101A8FFF7CBFF20B92A4621465B48BB
:10256000FFF74BFA09B030BD70B50546002400BF37
:10257000FFF7A8FF80B95BA1514800F0F3FD0446C6
:1025800054B13A21204600F0E3FD044614B1641C26
:10259000204670BD0020FCE70520FFF7F3F8280077
:1025A000A5F101018DB2E3D100BFF2E710B5FFF74D
:1025B0007FFF4EA14F48FFF739FA00F006FA0823D3
:1025C0004DA20021084600F0DAFA03E04FF4FA7059
:1025D000FFF7D8F84AA14BA0FFF789FF0028F5D1F3
:1025E0004AA14448FFF722FA08234BA20221002007
:1025F00000F0C5FA03E04FF4FA70FFF7C3F840A10A
:1026000048A0FFF774FF0028F5D14AA13948FFF729
:102610000DFA08234BA20421002000F0B0FA03E0D9
:102620004FF4FA70FFF7AEF835A14AA0FFF75FFF4D
:102630000028F5D14BA12F48FFF7F8F908234CA249
:102640000621002000F09BFA03E04FF4FA70FFF738
:1026500099F84AA14BA0FFF74AFF0028F5D151A1F4
:102660002448FFF7E3F900F0B0F9102353A200214A
:10267000084600F084FA4FF4FA70FFF783F810BDB3
:1026800010B540F225511148FEF74CFDB8B10D4888
:102690000088B0F5007F02D300200A4908800B486B
:1026A000001D0088C1B2074802880088401C054B05
:1026B00018800348815420210448FEF72AFD10BDEC
:1026C000D40200204E0000205000002000440040B2
:1026D00041542B43495053454E443D25640D0A0057
:1026E0003E0000004950442C00000000312E2041E3
:1026F000540D0A0000380140312E41542E2E2E0078
:102700004F4B000041540D0A00000000322E2043C0
:10271000574D4F44450D0A00322E43574D4F444507
:102720002E2E2E0041542B43574D4F44453D310D25
:102730000A000000332E2041542B43574448435095
:102740000D0A0000332E41542B4357444843502E6A
:102750002E2E000041542B4357444843503D312C0A
:10276000310D0A00342E2043574A41500D0A000013
:10277000342E43574A41502E2E2E0000474F5420EE
:102780004950000041542B43574A41503D22597152
:10279000717766222C225971717766333333312277
:1027A0000D0A0000352E2045535038323636204968
:1027B0006E6974204F4B0D0A0000000045535038DD
:1027C00032363620496E6974204F4B0010B54FF4F5
:1027D0008051F948FEF773F84FF40051F648FEF7C0
:1027E0006EF84FF40051F448FEF76BF84FF4805147
:1027F000F148FEF766F810BD10B54FF48051EE4871
:10280000FEF75DF84FF40051EB48FEF75AF84FF42D
:102810000051E948FEF753F810BD10B54FF4805150
:10282000E548FEF74CF84FF48051E348FEF749F8CD
:1028300010BD2DE9F04105462C464FF48051DE488D
:10284000FEF73FF800261CE0274607F08007802FA0
:1028500004D1B901D848FEF732F804E04FF4005132
:10286000D548FEF72EF86006040E4FF48051D2488A
:10287000FEF725F84FF48051CF48FEF722F8701C80
:10288000C6B2082EE0DBBDE8F08110B50446FFF7C4
:102890009DFF7820FFF7CDFFFFF7BFFF0020FFF778
:1028A000C8FFFFF7BAFF2046FFF7C3FFFFF7B5FFEA
:1028B000FFF7A2FF10BD10B50446FFF787FF782091
:1028C000FFF7B7FFFFF7A9FF4020FFF7B2FFFFF7C1
:1028D000A4FF2046FFF7ADFFFFF79FFFFFF78CFF38
:1028E00010BD70B504460D461DB1E0B2FFF7E3FF21
:1028F00002E0E0B2FFF7C9FF70BD70B506460024E4
:1029000018E004F1B0000021FFF7EBFF00210846BA
:10291000FFF7E7FF00211020FFF7E3FF002505E0A8
:1029200001213046FFF7DDFF681CC5B2802DF7DBC3
:10293000601CC4B2082CE4DB70BD06E041F6650102
:1029400000E0491E0029FCD1401E0028F6D1704746
:10295000014605E0002001E0421CD0B27B28FBDBF1
:102960000A00A1F10101F5D1704770B504460D468A
:1029700005F1B0000021FFF7B4FF102141EA141067
:102980000021FFF7AEFF04F00F000021FFF7A9FFC1
:1029900070BD10B500218D20FFF7A3FF002114208A
:1029A000FFF79FFF0021AF20FFF79BFF10BD10B581
:1029B00000218D20FFF795FF00211020FFF791FFE8
:1029C0000021AE20FFF78DFF10BD70B5002418E088
:1029D00004F1B0000021FFF784FF00210846FFF753
:1029E00080FF00211020FFF77CFF002505E001217A
:1029F0000020FFF776FF681CC5B2802DF7DB601C56
:102A0000C4B2082CE4DB70BD70B5002418E004F1FA
:102A1000B0000021FFF765FF00210846FFF761FFC6
:102A200000211020FFF75DFF002505E00121084689
:102A3000FFF757FF681CC5B2802DF7DB601CC4B2DE
:102A4000082CE4DB70BD2DE9F04707460E469046A2
:102A5000994600250024A8F12000C5B27F2F02DD91
:102A60000027B01CC6B2B9F1100F24D13146384648
:102A7000FFF77BFF002408E004EB05114F4A505C90
:102A80000121FFF72EFF601CC4B2082CF4DB701C80
:102A9000C1B23846FFF769FF002409E004EB0511D5
:102AA0000831464A505C0121FFF71BFF601CC4B28D
:102AB000082CF3DB12E031463846FFF756FF0024BE
:102AC0000AE005EB45013E4A02EB4101085D0121A8
:102AD000FFF707FF601CC4B2062CF2DBBDE8F087ED
:102AE00010B50246012000E050430B00A1F10104A3
:102AF000E1B2F9D110BD2DE9FF5F074691461E46B0
:102B00000E9D4FF0000A002435E0301B401EC1B27C
:102B10000A20FFF7E5FFB9FBF0F00A21B0FBF1F264
:102B200001FB1208BAF1000F14D1701EA04211DD92
:102B3000B8F1000F0CD1AB4605EBDB71491001FB7E
:102B40000471C8B22B4620220199FFF77CFF10E0E8
:102B50004FF0010AAB4605EBDB71491001FB047134
:102B6000C8B208F13001CAB22B460199FFF76BFFDA
:102B700000BF601CC4B2B442C7DBBDE8FF9F2DE9B3
:102B8000F04104460F461546984600260FE0AA5D20
:102B9000434639462046FFF756FF04F10800C4B209
:102BA000782C02DD0024B81CC7B2701CC6B2A85D28
:102BB0000028ECD1BDE8F081000C01407A580008F3
:102BC000525600082DE9F04180460E461546002772
:102BD00031464046FFF7C9FE00240AE0754A02EB81
:102BE0008511085D0121FFF77CFE781CC7B2601CCF
:102BF000C4B2102CF2DB701CC1B24046FFF7B5FE28
:102C000000240CE06900491C6A4A02EB4111085D8E
:102C10000121FFF766FE781CC7B2601CC4B2102CFD
:102C2000F0DBBDE8F0812DE9F05F06460F469046E7
:102C30001C46DDF828A04FF0000BE11704EB5171A2
:102C4000C910A4EBC10131B92046E11704EB517161
:102C5000C1F3C70506E02046E11704EB5171C91026
:102C6000491CCDB23D4615E029463046FFF77DFEB2
:102C7000B1460BE059460BF1010B1AF80100012196
:102C8000FFF72FFE09F1010000F0FF09C145F1DB5C
:102C9000681CC5B2A542E7DBBDE8F09F08B501217D
:102CA0000820FEF71BF84FF44050ADF8000010204C
:102CB0008DF8030003208DF8020069463E48FDF7B9
:102CC00051FD4FF440513C48FDF7F9FD4FF4487079
:102CD000FEF779FD0021AE20FFF703FE0021084634
:102CE000FFF7FFFD00211020FFF7FBFD0021402032
:102CF000FFF7F7FD0021B020FFF7F3FD0021812051
:102D0000FFF7EFFD0021FF20FFF7EBFD0021A120E1
:102D1000FFF7E7FD0021A620FFF7E3FD0021A82033
:102D2000FFF7DFFD00213F20FFF7DBFD0021C8207A
:102D3000FFF7D7FD0021D320FFF7D3FD0021084680
:102D4000FFF7CFFD0021D520FFF7CBFD002180202C
:102D5000FFF7C7FD0021D820FFF7C3FD00210520A4
:102D6000FFF7BFFD0021D920FFF7BBFD0021F120B7
:102D7000FFF7B7FD0021DA20FFF7B3FD0021122095
:102D8000FFF7AFFD0021DB20FFF7ABFD0021302076
:102D9000FFF7A7FD00218D20FFF7A3FD00211420E0
:102DA000FFF79FFD0021AF20FFF79BFDFFF70DFE12
:102DB00008BD000052000020000C01407CB51D46FB
:102DC00016460C00009001D02044401E074B7B4467
:102DD0002A4669460190304600F0DBFC05461CB1EE
:102DE0000020694600F0E8FC28467CBDF10900009F
:102DF0000FB41CB5084B06AA7B44694600900598A1
:102E000000F0C7FC04460020694600F0D5FC2046CF
:102E10001CBC5DF814FB0000BD09000070B5044641
:102E200085690068C10601D5302600E02026C0076C
:102E300007D070BDD4E9012130469047206A401C7C
:102E400020626D1EF6D570BD70B5044685690078A8
:102E5000C00707D170BDD4E9012120209047206A26
:102E6000401C20626D1EF6D570BD70B50C4605463F
:102E7000012A05D02878800600D5EA69002302E0FF
:102E8000012305E05B1C934202D2E05C0028F9D1EB
:102E9000A869E618C01AA861286A1844286228465A
:102EA000FFF7BCFF04E0D5E9012114F8010B9047BE
:102EB000B442F8D32846FFF7C7FF70BD2DE9F041B3
:102EC0000646002410687529314616A510D000F07A
:102ED000CFF9002802DA404213A507E031688A07DB
:102EE00001D512A502E0490704D511A5012401E08E
:102EF00000F0C7F900210A2206F1240709E0B0FB1F
:102F0000F2FCB0FBF2F302FB1C00303078541846A0
:102F1000491C0028F3D123462A463046BDE8F0413B
:102F200000F0B8B9000000002D0000002B000000E8
:102F300020000000F0B40D460188090502D5214C9F
:102F40007C4402E01F4C7C440E34002100F1240636
:102F500008E002F00F071209E75D42EA03721B095D
:102F60007754491C52EA0307F3D102780023120771
:102F700004D5702D06D009B1022311342246F0BCCD
:102F800000F088B901231034F8E770B504460D4607
:102F90002146106800F075F9024629462046BDE832
:102FA00070400023C6E7D21D22F00703D3E90023B7
:102FB000C0E70368126843F0200303600823C3617D
:102FC0000023B7E7262F00002DE9F05F894604466D
:102FD0004FF0000ADFF874B1FB44C0F820A020468F
:102FE000E1688847002874D0252806D0D4E901215B
:102FF0009047206A401C2062F1E700265F46204689
:10300000E16888472028054607DB312D05D278196D
:1030100010F8200C08B10643F1E7B00701D526F0FF
:103020000406C4F81CA00027C4F818A02A2D09D053
:10303000284601F0AAFB38B304EB8708303DC8F8F6
:10304000185019E059F8041B204604EB87029161DF
:10305000E1688847012F054618D1E069002820DA89
:1030600026F020061DE0D8F8180000EB800005EBE4
:1030700040003038C8F818002046E1688847054607
:1030800001F083FB0028EED1012F0AD02E2D08D1AC
:103090002046E16888477F1C0546022F46F020063F
:1030A000C4DBA069002803DA404246F00106A061B3
:1030B000F00701D026F010066C2D0BD0682D09D03A
:1030C0004C2D39D06A2D35D0742D35D07A2D33D092
:1030D00016E038E0E1682F4620468847B8420546AA
:1030E00009D16C2F26D04FF48060E168064320465A
:1030F0008847054604E06C2F1AD04FF480700643D1
:103100000DB3A5F14100192802D8203546F4006618
:103110004A462946204626604E46FDF741F880B1D2
:1031200001280BD0F61D26F0070000F1080956E72C
:103130004020E4E78020D8E70020D6E706F1040924
:103140004DE7284652E7206ABDE8F09FB62E000002
:10315000401ECAB210F8011F8A4202D00029F9D1DC
:103160000020704730B505460B462A4613F8014B40
:1031700012F8010B08B1A042F8D01CB1002802D00F
:103180006D1CF1E7284630BD10B5431C02E010F875
:10319000011B71B18107FAD14FF0013202C88C1ABC
:1031A0008C4314EAC211F9D0C01A0A0603D0C01E1B
:1031B00010BDC01A10BD0A0401D0801E10BD090246
:1031C000FCD0401E10BD4FF000020429C0F0128058
:1031D00010F0030C00F01B80CCF1040CBCF1020FCA
:1031E00018BF00F8012BA8BF20F8022BA1EB0C019F
:1031F00000F00DB85FEAC17C24BF00F8012B00F895
:10320000012B48BF00F8012B70474FF0000200B5BA
:10321000134694469646203922BFA0E80C50A0E8F9
:103220000C50B1F12001BFF4F7AF090728BFA0E8A7
:103230000C5048BF0CC05DF804EB890028BF40F873
:10324000042B08BF704748BF20F8022B11F0804FB5
:1032500018BF00F8012B7047704770477047000097
:1032600010B500F0A5FB001D10BD00BF2D1500001E
:1032700009684A0501D540B27047C905FCD500B2BE
:10328000704709684A0501D5C0B27047C905FCD529
:1032900080B270472DE9F0470D46994692460446A4
:1032A00000F124080168880604D5E06921F01001C6
:1032B000216000E00120A84201DD471B00E000275B
:1032C000A1697A1902EB0900081AA0612078C006EA
:1032D00002D42046FFF7A2FD002608E0D4E9012130
:1032E0001AF806009047206A401C761C20624E4562
:1032F000F4DB2078C0060AD52046FFF78FFD06E0F4
:10330000D4E9012130209047206A401C2062381EF9
:10331000A7F10107F4DC07E0D4E9012118F8050062
:103320009047206A401C2062281EA5F10105F3DCAD
:103330002046FFF789FD2078000602D50220BDE86F
:10334000F0870120FBE711680268006A530501D588
:1033500008700AE0D30501D5088006E0130603D5FE
:10336000C217C1E9000200E0086001207047704701
:103370002DE9FF4F0C461E464FF0FF378BB0D2E9C8
:103380000001DDF860800A908A46C1F30A5505B94C
:103390003D46002108464FF00000BAF1000F00F44E
:1033A000400005DA00EB80004FF4400101EA5000D4
:1033B0004FEA9059B9F1010F00DDB9460A9850EA79
:1033C0004A000ED044F61050A5F2FF3545432F14A5
:1033D000B8F1000F1ED07542291E1EDDC9F1000292
:1033E0001CE0B8F1010F4FF0000001D0302103E0E4
:1033F000F24305E02154401CB042FBDB3046002282
:10340000002121540B99C1F80880C1E900200FB0B8
:10341000BDE8F08FBD1B6D1CDEE74A4600DA69424D
:1034200006A800F0E3FC06AB93E8070003AB83E8D3
:10343000070050460A9900F0D9FD8DE80700A0F575
:1034400000501F3800900398002D09DD42F21F0143
:103450004A46084403A90390684601F038F808E09A
:10346000A0F500504A461F3803A90390684601F0B2
:1034700042F88DE807000004000C03D04FF0FF3045
:10348000410800E01046B8F1000F03D0002200927E
:1034900015461EE0751E05D400F08EFA30326255D6
:1034A0006D1EF9D5B3460122084302D000227F1CCD
:1034B00004E02078302801D100227F1E002A0997DD
:1034C00086D01DE0112D07DA00F076FA3032625511
:1034D0006D1C50EA0102F5D1084302D00098C8B132
:1034E0000EE00021681E05E0235C625C63542254F8
:1034F000401E491C8142F7DBAB46A81B401E0990C9
:10350000002004F80B000B98099AC0F80880C0E965
:10351000002B7CE711264FF0000859E72DE9F04F0A
:1035200088460446D21D22F0070191B0D1E900017E
:10353000CDE90A0101F015F902460B98C00F01D040
:103540002D2007E02068810701D52B2002E02021F3
:1035500001EAC000032A099001D0072A05DB0346CF
:103560004146204600F0ECFB0BE12078800601D5B7
:10357000E06900E00620B8F1650F814606D0B8F199
:10358000660F18D0B8F1670F70D131E00020B9F1A3
:10359000110F009001DB112301E009F101030AAAD8
:1035A00001A90CA8FFF7E4FEDDE90C70002609F183
:1035B0000105834647E001204B4600904FF000474D
:1035C0000AAA01A90CA8FFF7D3FEDDE90DB00C99FA
:1035D0005D46002610B909F101000D18B9EB050090
:1035E00003D4C0F1FF3609F10105A5EB09002BE07A
:1035F000B9F1010F01DA4FF001090020B9F1110F03
:103600000090484601DD112300E003460AAA01A903
:103610000CA8FFF7ADFEDDE90C704D460026834691
:10362000207800070AD4AB4500DA5D4601A8012DD9
:1036300004DD411911F8011C302907D04F4502DA89
:1036400017F1040F04DA012082460FE06D1EEEE749
:10365000002F02DCED1B3E4403E0781CA84200DD95
:103660007D1CB81B00F1010A4FF0004720780007CD
:1036700003D4AA4501DB4FF0FF3A0021B7F1004F18
:103680000DF143088DF8431024D002202B23002F86
:1036900001DA7F422D230A21021EA0F1010000DC85
:1036A0005FB197FBF1FC97FBF1F201FB1C7C174625
:1036B0000CF1300C08F801CDEEE7A8F10100037021
:1036C0002188090501D5452100E06521A0F1010807
:1036D00000F8011C09980FA9A1EB0807FF1D00B114
:1036E0000120411901EBEA70A1693844081A401E13
:1036F000A0612078C00602D42046FFF78FFB09980E
:1037000028B1D4E901219047206A401C206220782A
:10371000C00622D52046FFF781FB1EE0002E04DB09
:10372000B34502DD01A8805D00E03020D4E901212D
:103730009047206A401C2062761CAAF101005FEAD3
:10374000000A0AD100F034F9C0680168405CD4E98D
:1037500001219047206A401C2062281EA5F1010526
:10376000DCDC07E0D4E9012118F8010B9047206A5E
:10377000401C2062381EA7F10107F3DC2046FFF74A
:1037800063FB032011B043E601694A1C026108781B
:10379000704700B58FB0CDE9013100210591054991
:1037A0007944CDE9031011466846FFF70DFC0FB0D0
:1037B00000BD0000E5FFFFFF0A6802F8010B0A6088
:1037C0007047D1E900239A4202D2531C0B6010705B
:1037D000704710B5436913B1AFF3008001E0FFF704
:1037E00044FB012010BD127800F124010A70002270
:1037F0004A700122EDE711684FF0FF32E9E700005F
:103800002DE9FF5F15468A460446DFF8AC80F84490
:103810000027D8E900103E46CDE9001010E03AF844
:1038200016106A4602A800F04FFB411C07D0217811
:10383000890603D5E269391891420DD80744761CF0
:103840002078800602D5E069B84205DDAE42E6DBAD
:103850003AF816000028E2D1A069C01BA0612046FA
:10386000FFF7DCFAD8E90010CDE90010002017E0DE
:103870003AF818106A4602A800F026FBB0F1FF3FA4
:1038800081460BD000250DF1080B05E0D4E901219C
:103890001BF8050090476D1C4D45F7D308F101005A
:1038A000B0428046E4DB206A384420622046FFF7BD
:1038B000CBFABDE8FF9F0000922600002DE9F04101
:1038C0008046D21D22F007020025D2E90002F52928
:1038D00015A614D0011E72F1000106DA0023D0EB08
:1038E000030063EB020211A608E0D8F800108B0772
:1038F00001D50FA602E0490701D50EA60125114604
:10390000002408F1240704E000F056F830323A555C
:10391000641C50EA0102F7D12B463246214640464C
:10392000BDE8F041FFF7B6BC000000002D0000002C
:103930002B0000002000000030B4002100F124041E
:1039400008E002F00705D208303542EA4372DB088E
:103950006554491C52EA0305F3D10468002310A200
:10396000250708D504F020040C4304D0C4690123C2
:103970000CA2641EC46130BCFFF78CBC10B50446B9
:1039800021461068FFF77DFC02462046BDE8104046
:103990000023D1E7D21D22F00701D1E90023CBE7B4
:1039A000000000003000000000487047D4040020F0
:1039B00000487047F404002030B5B0F10A024FEA25
:1039C000900E71F100034EEA817EB0EB0E0061EBC8
:1039D00091014FEA101E4EEA017E10EB0E0041EB02
:1039E00011114FEA102E4EEA016E10EB0E0041EB62
:1039F00011214FEA104E4EEA014E10EB0E0041EB42
:103A00001141401841F100014FEAD00040EA4170F5
:103A10004FEAD10110EB80054FEA810444EA90742B
:103A200044EB01046D1944EB0404521BA3414FF015
:103A3000000348BF0A3200D530BD401C41F10001EF
:103A400030BD00002DE9F04F04460D46D21D22F096
:103A5000070089B0D0E9009248461746394600F081
:103A600080FE0246F80F01D02D2307E02068810771
:103A700001D52B2302E0202101EAC0038DF820307C
:103A80000BB1012000E00020032A824601D0072A62
:103A900004DB2946204600F053F93DE120788006FA
:103AA00001D40D2500E0E569C7F30A560D2D49DA6A
:103AB00000214FEA175B08464FF00000002F00F48A
:103AC000400007DA00EB80004FF4400100EBD070BB
:103AD00001EA60008115012901DD4FF0FF3100226C
:103AE0004FEA850CBCF1180F06D31346ACF1180051
:103AF0004FF08052C24003E04FF4801323FA0CF3DE
:103B00000CF10C0CBCF1200F04D3ACF1200C09FA21
:103B10000CF001E007FA0CF000294FF0004801DD3D
:103B200018B90FE00ED140450CD319EB02095F41E3
:103B300021B9404502D19F4329EA0209BBEB175F37
:103B400000D0761C2088000502D57B48784402E02E
:103B500079487844193808AA302302F80A30037CDF
:103B60000AF10101002E0AF1020A53546A4602DCEE
:103B70004FF0300101E04FF031014FF001088DF8B6
:103B8000001002D0A6F2FF3603E059EA470100D048
:103B90006A4E002D02DC2178090704D54FF0020897
:103BA0002E218DF80110C44600210BE0C7F303431A
:103BB0003F01C35C491C6D1E02F80830052908F15D
:103BC000010801DA002DF1DC00210CE000EB197393
:103BD000491C1B786D1E082902F808304FEA0919A4
:103BE00008F1010801DA002DF0DC2178890602D500
:103BF00014E0A8F10108E04505DD02EB080111F829
:103C0000011C3029F5D0B8F1000F07DD02EB0801E7
:103C100011F8011C2E2901D1A8F10108002D05DDA4
:103C20003E2102F808106D1E08F10108407C002EAC
:103C300002F8080008F1010804DA2D20764202F8A3
:103C4000080002E02B2002F808000A214FF47A70E5
:103C5000864208F101080BDB96FBF0F3303302F8E3
:103C6000083096FBF0F308F1010800FB136601E051
:103C7000642E0CDB642096FBF0F3303302F808303E
:103C800096FBF0F308F1010800FB136601E00A2E31
:103C900006DB96FBF1F0303002F8080008F101086D
:103CA00096FBF1F001FB1060303002F80800A169CA
:103CB00008F1010808EB050202EB0A00081AA061EE
:103CC0002078C00602D42046FFF7A8F8216A08AE83
:103CD00001EB0A00206204E0D4E9012116F8010B8F
:103CE0009047BAF1010AF7D22078C00602D52046E3
:103CF000FFF794F86E4609E016F8010B3E280FD046
:103D0000D4E901219047206A401C2062B8F10108E3
:103D1000F2D22046FFF798F809B00320BDE8F08FF3
:103D2000206A2844206203E0D4E901213020904732
:103D30006D1EEBD3F8E700006F23000002FCFFFFCD
:103D40002DE9F0411F46044603260168072A01F4C5
:103D5000006004DB08B116A505E016A503E008B174
:103D600015A500E015A521F010002060A069C01E77
:103D7000A0610FB1401EA0612046FFF74FF84FB180
:103D8000D4E9012138469047206A401C2062C01CBB
:103D9000206206E0206AFAE7D4E9012115F8010B58
:103DA0009047761EF8D22046FFF74EF8BDE8F08126
:103DB0004E414E006E616E00494E4600696E6600CF
:103DC00010B5436913B1AFF3008001E0FFF718FDB0
:103DD000012010BD128800F1240182840022C284D7
:103DE0000122EDE711684FF0FF32E9E72DE9F047D6
:103DF000814616468AB0334878440DC88DE80D00D8
:103E000030487844801C03AC0DC884E80D0041F6AE
:103E10009B300844372190FBF1F290FBF1F5A5F1BE
:103E2000800501FB12041B3C02D56442012000E026
:103E30000020DFF890A080460027FA44AAF1BE0ACD
:103E40000DE0E00709D03246684607EB47010AEB70
:103E5000810100F050FB8DE8070064107F1C002CEE
:103E6000EFD1184F7F44AC3F18E0E80714D007EBC0
:103E700004100DF1180A90E80E008AE80E00C068E0
:103E8000F04201D198190890324606A903A800F023
:103E900032FB03AB83E807006D10641C002DE4D1F6
:103EA00032466946B8F1000F03A802D000F00FFBBC
:103EB00001E000F020FBC9E90001C9F808200AB0C0
:103EC000BDE8F0875421000070B516460C46054643
:103ED000FFF7C6F9036893F80101012806D0FF2C0B
:103EE0000FD8185D68B101202C7070BDD3F80701A0
:103EF0003246214603F2071303442846BDE87040CA
:103F000018474FF0FF3070BD70477546FFF74CFD06
:103F1000AE4605006946534620F00700854618B0B6
:103F200020B5FCF73FFBBDE820404FF000064FF006
:103F300000074FF000084FF0000B21F00701AC46DE
:103F4000ACE8C009ACE8C009ACE8C009ACE8C009FD
:103F50008D4670470446AFF300802046FCF783F996
:103F60004FF0013C50F8042B51F8043B9A4221D108
:103F7000A2EB0C03934313EACC1317D150F8042B94
:103F800051F8043B9A4215D1A2EB0C03934313EA78
:103F9000CC130BD150F8042B51F8043B9A4209D1B1
:103FA000A2EB0C03934313EACC13DBD04FF00000D9
:103FB000704700BFD01A01BAB1FA81F101F01801BF
:103FC00022FA01F0CB40C1F12001DBB2C0B2C01A2D
:103FD0002CFA01F3D11A914311EAC311E6D17047CB
:103FE00001491820ABBEFEE7260002005FEA400C44
:103FF00008BF91F0000F4FEA8C234FEAC12243EA39
:1040000051514FEA1C5018BF00F5F0404FEA300004
:1040100018BF41F000415FEA6C5C00F02980BCF100
:10402000FF3F08BF40F080407047130C06BF1204EA
:104030004FF0100C4FF0000C130E04BF12020CF1E5
:10404000080C130F04BF12010CF1040C930F04BFF2
:1040500092000CF1020CD30F04BF52000CF1010CC2
:1040600011464FF00002A0F11F00A0EB0C007047BA
:1040700011F0004F08BF704731F000413FF4D5AF59
:104080000B0C06BF09044FF0100C4FF0000C0B0E88
:1040900004BF09020CF1080C0B0F04BF09010CF15D
:1040A000040C8B0F04BF89000CF1020CCB0F04BF72
:1040B00049000CF1010CCCF12003A0EB0C0022FA1A
:1040C00003F302FA0CF241EA030100F10100704728
:1040D00020F07F4C80EA030023F07F47ACEB07031E
:1040E00003F57C5300F0004003F1FF032DE9804904
:1040F0004FEA154B09B44FEA144325EA0B4E24EA64
:1041000003480FF2042606EB132749083E785FEABE
:10411000320203FB0667C7F5000707FB06F64FEA06
:1041200054374FEAD64606F1020607FB066CCCF17F
:10413000005C4FEA1C472CEA074C07FB06F40CFB1B
:1041400006F504EB15464FEA961634BF00204FF0F3
:1041500000404FEAD13706FB07FC4FEA1C4C0CFB32
:104160000BF7D21B03FB0CF761EB07010CFB0EF7FF
:10417000B0EB074072EB17420CFB08F734BFA2EB21
:104180000742B2EB074261EB17414FEA0C444FEA9A
:10419000910706FB07FC4FEA1C4C0CFB0BF7B0EB3E
:1041A000C74072EB573203FB0CF734BFA2EBC74298
:1041B000B2EBC74261EB57310CFB0EF7B0EBC70017
:1041C00072EB57720CFB08F734BFA2EBC702B2EBDD
:1041D000C70261EB5771039F4FEA816141EA921177
:1041E00004EBCC044FEAD1374FEA826206FB07FCAE
:1041F00042EA90124FEA80604FEA1C4C0CFB0BF72E
:10420000D21B03FB0CF761EB07010CFB0EF7B0EBC5
:10421000074072EB17420CFB08F734BFA2EB0742D2
:10422000B2EB074261EB17414FEA8C554FEA910719
:1042300004EB9C2406FB07FC4FEA1C4C0CFB0BF721
:10424000B0EBC74072EB573203FB0CF734BFA2EB65
:10425000C742B2EBC74261EB57310CFB0EF7B0EB34
:10426000C70072EB57720CFB08F734BFA2EBC70212
:10427000B2EBC70261EB577115EB4C254FEA816138
:1042800041EA92114FEA82624FEAD13742EA901234
:1042900006FB07FC44F100044FEA80604FEA1C4C27
:1042A0000CFB0BF7D21B03FB0CF761EB07010CFBBC
:1042B0000EF7B0EB074072EB17420CFB08F734BF68
:1042C000A2EB0742B2EB074261EB174115EB1C155D
:1042D0004FEA813141EA92414FEA823242EA90420A
:1042E0004FEA80304FEA0C7644F1000448EA034379
:1042F0004EEA0B484FF0000EB2EB080C71EB0307CF
:1043000024BF624639464EEB0E0E4FF0000B0018EC
:10431000524149414BEB0B0BB2EB080C71EB03071D
:104320007BF1000B24BF624639464EEB0E0E4FF078
:10433000000B0018524149414BEB0B0BB2EB080C40
:1043400071EB03077BF1000B24BF624639464EEB4D
:104350000E0E51EA020718BF46F0010616EB0E7664
:1043600055F1000254F1000103D5BDE88901BDE813
:104370000088BDE88901BDE80048B619524141EB0B
:104380000101A3F10103704780807F7E7D7C7B7AF1
:104390007978777676757473727171706F6E6E6DF1
:1043A0006C6C6B6A6A696868676666656464636397
:1043B00062616160605F5F5E5E5D5D5C5C5B5B5A1D
:1043C0005A5959585857575656555555545453538A
:1043D00052525251515050504F4F4F4E4E4D4D4DE5
:1043E0004C4C4C4B4B4B4A4A4A4949494848484730
:1043F000474747464646454545444444444343436E
:104400004342424242414141002B26D4770021D011
:104410001CB54FEA370703B44FF010004FF01001FE
:104420004FF000000FBCBDE810400BF1010BBBF1D9
:10443000010F08BF5FEA170722BF12F1010211F155
:1044400001014FF0004143F1000300F0004043EA56
:1044500000007047F9D35708DAE746EA064613F139
:10446000400F4FEA16461FDD13F1200FDFBF164342
:104470000A46002120335B42C8D0C3F1200746EA38
:10448000064602FA07F74FEA164646EA0706C3F160
:10449000200722FA03F201FA07F721FA03F14FF09D
:1044A000000342EA0702B1E746EA020646EA064688
:1044B0004FEA164646EA0106BCBF46EA0646360CF7
:1044C0004FF000034FF000024FF000019EE72DE98E
:1044D000C048934630B491E8380007C831EA400C30
:1044E00048BF34EA430C03D5FFF7F2FDFFF78CFF1A
:1044F000F0BCBDE800882DE9C048934630B491E88F
:10450000380007C810F0804F08BF13F0804F03D168
:1045100000F005F8FFF778FFF0BCBDE8008820F058
:104520007F4780EA030023F07F4C07EB0C03A3F5E1
:104530007C5300F00040A3F1FE0392F0000F00F066
:10454000B38095F0000F00F077802DE901494FEA24
:1045500011404FEA144621EA004800FB06FC24EA19
:10456000064708FB06F607FB08F800FB07F718EB01
:1045700006484CEB164C4FEA124B18EB07484FEA33
:1045800015464CEB174022EA0B4E0BFB06FC25EAC6
:1045900006470EFB06F607FB0EFE0BFB07F71EEBAE
:1045A000064E4CEB164C4FF000061EEB074E4CEB44
:1045B000174B18EB0B0840F1000018EB0E0B58EBF3
:1045C000000840F100008F1A4FF000013CBFC943C2
:1045D000661B14BFB5EB040C00213CBFC943F61B9E
:1045E0004FEA17444EEA8E0E27EA04454FEA1C476D
:1045F00004FB07622CEA074C05FB07F70CFB05F6EA
:1046000004FB0CFC16EB074642EB174216EB0C467C
:1046100042EB1C421BEB060658EB0202414146EA04
:104620009E0601D5BDE80189B619524141EB010151
:10463000A3F10103BDE801894FEA14454FEA114790
:1046400024EA054621EA074C05FB07F406FB07F7B9
:104650000CFB06F105FB0CFC11EB074144EB174486
:104660004FEA124711EB0C4144EB1C4422EA074C81
:1046700005FB07F206FB07F70CFB06F605FB0CFC37
:1046800016EB074642EB174216EB0C4642EB1C4575
:104690006A1854F1000148BF7047B619524141EB06
:1046A0000101A3F10103704795F0000F37D04FEAE5
:1046B00011424FEA144721EA024624EA074C02FB62
:1046C00007F106FB07F70CFB06F402FB0CFC14EBEE
:1046D000074441EB17414FEA154714EB0C4441EBFB
:1046E0001C4125EA074C02FB07F506FB07F70CFB0C
:1046F00006F602FB0CFC16EB074645EB174516EBDE
:104700000C4645EB1C42121951F1000148BF70479D
:10471000B619524141EB0101A3F1010370474FEA81
:1047200014454FEA114724EA054621EA074C05FBE8
:1047300007F106FB07F70CFB06F24FF0000605FB3E
:104740000CFC12EB074241EB174112EB0C4251EB10
:104750001C4148BF7047921841EB0101A3F10103CE
:104760007047490050EAC12018BF04204A0D18BF05
:1047700040F0010040F2FF72B2EB515F08BF40F021
:104780000200012808BF0520704730380A2801D2EE
:10479000012070470020704710B500290AD0087822
:1047A000002807D005487844FFF7DAFB002801D03D
:1047B000002010BD0248784410BD0000E217000040
:1047C000DA17000010B500290AD00878002807D0B1
:1047D00005487844FFF7C4FB002801D0002010BD35
:1047E0000248784410BD0000C6180000BE18000042
:1047F00021F00042A2F16052B2F5801F01F00043A7
:1048000028BFD2F17F6C0BD95FEA001C43EAC202D9
:1048100042EB507018BF704728BF20F0010070476E
:10482000B2F5801FBCBF184670474FEA410C1CF51B
:10483000001F02D2084600F05DBE70B500F0FAFA23
:1048400000000089FFF7F6BF4FF00040A0F58000A0
:104850007047000010B591EA030F48BF83F0004392
:1048600000F14483841A71EB030C05D2121943EB57
:104870000C03001B61EB0C01DFF824E14FEA11543B
:10488000A4EB135C1EEA430F18BF9EEA445F73D08B
:1048900023EA0E03DCF1200E21EA045143F48013D5
:1048A00032D322FA0CFE10EB0E0023FA0CFE41EB81
:1048B0000E01CCF1200E03FA0EFE10EB0E0051F1AA
:1048C0000001B1F5801FCCF1200E32D201EB045172
:1048D00012FA0EF2BDE8104058BF7047401C38BFB6
:1048E0005FEA420218BF7047002814BF20F00100A1
:1048F00041F100014FEA410313F5001F38BF704733
:10490000A1F1C04100F0E4BA012A43EB0302ACF18B
:10491000200CDCF11F0E32BF4FF0000E23FA0CF317
:1049200010EB030041EB0451B4EB115FD0D0A1EBCD
:10493000045101F5801149085FEA300001EB045190
:104940000ED350F1000038BF12FA0EFE08D1BDE8B8
:104950001040C9E7401C38BF5FEA4202CAD1C3E732
:10496000BDE810404FEA410313F5001F38BF704700
:10497000A1F1C04100F0ACBA9EEA445F08D011EA50
:104980005E0FBDE8104004BF01F0004100207047F9
:10499000BDE8104070B500F04DFA00BF64FBBE3EAC
:1049A0000000E0FF2DE9C04130B4DFF8A0C23CEACE
:1049B000111418BF3CEA131400F0EC8081EA0305DF
:1049C0001CEA111444EAD57418BF1CEA131500F050
:1049D000C780A4EB05044FF0004545EAC12145EA34
:1049E000C32341EA505143EA525304F17F74994280
:1049F00004F500344FEAC0204FEAC22208BF9042BB
:104A000000F09C804FEA13650FF24016765D4FEA86
:104A1000134506FB05F7C7F1807706FB07F74FEA5A
:104A2000D737A7FB03687642C8F58038A7FB06CEC8
:104A300038BFA8F1010807FB08E64FF0000EA6FBFF
:104A4000028CE6FB03CEDCF1000CCEF1004E38BF49
:104A5000AEF1010EA6FB0C584FF000074FF0000519
:104A6000E6FB0E87A1FB08C6A0FB07CE16EB0E06E1
:104A700045F10005E1FB076515F1E04E7EBFA4F5A9
:104A800080345FEA46066D4116F1800745F1000566
:104A90004FEA17274FEA066647EA0567A6F1DE46A2
:104AA000B6F1805F4FEA15251FD9384624F0010C76
:104AB00005EBC471BCF1FE6F01EB0C1102D8F0BC28
:104AC000BDE8008124425CBF01F5801E9EEAC47FE0
:104AD00002D4F0BCBDE80081244238D4F0BCA1F17E
:104AE000C041BDE8004100F0F3B94FEAD22242EAEA
:104AF00043524FEAD323A7FB02864FEAD02040EA75
:104B0000415007FB03661EEA0E0F4FEAD12105FB59
:104B1000026658BFA6EB0056B6EB00564FEA520E9F
:104B20004EEAC37E18EB0E0E56EB530EBDD518EBB6
:104B300002085E417F1C55F10005B6E74FF4801571
:104B40004FF000074FF000064FF00008ADE7F0BC53
:104B50004FF0000001F1C04101F00041BDE80081CB
:104B600011EA0C1F0CEA131500D00CE013EA0C1F1D
:104B700000F025804FF00000F0BC81EA030101F055
:104B80000041BDE80081F0BCBDE8004181EA0301BD
:104B900000F09EB9F0BCBDE8004170B500F04AF9E4
:104BA000097EFC3E00F007B881EA03014FF00000E7
:104BB00001F00041704781EA030100F089B9F0BCBF
:104BC000BDE800414FF0000021497047FFFDFBF9AF
:104BD000F7F5F4F2F0EEEDEBE9E8E6E4E3E1E0DE30
:104BE000DDDBDAD8D7D5D4D3D1D0CFCDCCCBCAC8A2
:104BF000C7C6C5C4C2C1C0BFBEBDBCBBBAB9B8B7C9
:104C0000B6B5B4B3B2B1B0AFAEADACABAAA9A8A8BB
:104C1000A7A6A5A4A3A3A2A1A09F9F9E9D9C9C9B89
:104C20009A99999897979695959493939291919034
:104C30008F8F8E8E8D8C8C8B8B8A898988888787C5
:104C40008685858484838382828181800000FF073A
:104C50000000F87F4FEA41034FEA5353A3F5806306
:104C6000D3F11E03C8BFD3F1210C0CDD4FF000427D
:104C700042EAC12242EA505232FA03FC8CEAE17C59
:104C8000ACEBE1707047102BC4BF0020704703F5F8
:104C9000787CBCF1FF3F04D06FF0004282EA210033
:104CA000704770B500F0C6F8499224800020704724
:104CB000F2E710F0004248BF4042B0FA80F310FA29
:104CC00003F10AD0C3F11D0303F580634FEA41509D
:104CD00002EB035202EBD12170474FF00000704706
:104CE000DFF848C170B51CEA111E1EBF1CEA13157F
:104CF0009EEA0C0F95EA0C0F00F06F8081EA030426
:104D000023EA4C134EEAD47E21EA4C1141F480117F
:104D100043F48013AE44A1FB024CA0FB0365AEF14B
:104D20007F7E361955EB0C05A1FB034C4CF10003BB
:104D3000A0FB021C16EB0C06654153F1000309426F
:104D400018BF46F0010613F4007F0BD14FEA033180
:104D50004FEA0530340341EA155140EA16506FF02E
:104D600003020AE04FEAC3214FEAC520F40241EAF8
:104D7000555140EA56506FF0020202EB2E4201EB11
:104D8000025585EACE710AD05FEA440C18BF24F0C0
:104D9000004450F1000041F1000120EAD47040F2DB
:104DA000FE7C624500D270BDA84214BF4FF0804423
:104DB0004FF04044002E08BF0024BEF1806FA8BF12
:104DC000A1F1C041BDE8704080F282804FF0000048
:104DD00001F1C04101F0004170479EEA0C0F0CEA5E
:104DE000131518BF95EA0C0F06D04FF0000081EAAA
:104DF000030E0EF0004170BD00F01CF88900013E6A
:104E000000F007B800F009B84FEA430C5FEA5C5CB9
:104E100008D081EA030100F05BB84FEA410C5FEA79
:104E20005C5CF6D14FF00000014970470000FF07BD
:104E30000000F87F0EF1020E2EF0030E5EF8046BF8
:104E4000364205D4012A43EB030515F5001F12D89D
:104E5000012841EB010C1CF5001F0CD80ED14FEAC4
:104E6000D17C15F5001F0CEB4C0C0CF1020C08BFAB
:104E70004CEBD37C04E04FF0080C01E04FEAD37C0C
:104E80000CEB4C0526FA05F606F00706B6F1040C05
:104E900006D20EEB860CBDE870404CF0010C60476A
:104EA000DFE80CF0090B02024FF000414FF0000068
:104EB000A1F5002170BD19461046012851EB0104EF
:104EC00018BFD4F5001484BF002001F0004170BD6C
:104ED0000808A0F500114FEA3101704710B591EABA
:104EE000030F48BF83F000433FF5BCAC841A71EB5D
:104EF000030C07D212198CF0004C43EB0C03001B7F
:104F000061EB0C01DFF8A4E14FEA1154A4EB135C50
:104F10001EEA430F18BF9EEA445F00F0B08023EA08
:104F20006E03524221EA0451C3EB6E0338BF5B1E8D
:104F3000DCF1200E25D322FA0CFE10EB0E0043FA12
:104F40000CFE41EB0E01CCF1200E03FA0EFE10EB2D
:104F50000E0051F10001CCF1200E29D412FA0EF20C
:104F600001EB0451BDE8104058BF7047401C1CBF06
:104F7000B2F1004F704700280CBF491C20F001001F
:104F8000704712EB020E43EB030218BF4FF0010E05
:104F90004EEA4202ACF1200CDCF11E0E54D943FA69
:104FA0000CFE10EB0E0051F1FF31CCF11E0ED5D5E9
:104FB0000EF1010E12FA0EFE404141EB010101EB30
:104FC000445C5FEA5C5C10D910EBDE7001EB0451CD
:104FD00038BFBEF1004FBDE8104018BF7047002831
:104FE0000CBF491C20F00100704730D24FEAD42C8E
:104FF00011F5001124F400641BD0B1FA81F20B3AD0
:10500000A41AA41ED2F12003914030FA03F31943ED
:10501000904001EBCC71002C01EB0451BDE8104035
:10502000A8BF704701F1C0414FF0000001F00041FE
:105030007047B0FA80F310FA03F100D110BDE41A02
:10504000173C4805C90AE4E701EB045110BD4910BB
:1050500001EB0451BDE810404FEA300002E04FF090
:10506000000170474A0008BF0042F8D0B2F5001FA7
:1050700028BF704701F000414FF0000070479EEAE2
:10508000445F07D011EA5E0FBDE8104004BF002165
:1050900000207047BDE8104070B5FFF7CBFE00BFA1
:1050A00040DFF63E83F00041104670470000E0FF0D
:1050B00043004FEAD30C4FEA3C0C43401FBF40076C
:1050C0000CF1605113F0FE4F70471CF0006F03D1DC
:1050D00000200CF0004170470CF0004343EA507090
:1050E00010B540EACC0000F0BFF900BF000000920C
:1050F0004FEA0001FFF7ECBE4FF000414FF0000017
:10510000A1F500217047000090EA010F48BF81F02F
:10511000004100F12C82421A3CBF801A89184FEAE4
:10512000D0524FF07F4C1CEA410FA2EBD15318BF75
:105130009CEA026F00F03B804FF0004C4CEA0020EC
:105140004CEA012121FA03FC10EB0C0C1ED202F1F7
:10515000FF325FEA1C2040EBC25038BF70471CF0A2
:105160007F0F4FEA400C18BFBCF17F4F38BF70472C
:10517000C3F12003994008BF20F00100BCF17F4F2C
:1051800038BF7047A0F1C04000F0B4B94FEA3C000E
:10519000000A40EBC25028BF1CF0FF0F4FEA400C42
:1051A000E6D018BFBCF17F4F38BF7047EAE79CEAF2
:1051B000026F05D010EA5C0F08BF00F00040704796
:1051C00010B500F051F900BF64FBBE3E401058BF5F
:1051D000C0F14040491058BFC1F140418142EFF356
:1051E000008070474FF47F0C1CEAD0121EBF1CEAEF
:1051F000D11392EA0C0F93EA0C0F00F0858090EA2D
:10520000010F48BF42F4807240F4000C41F40000EA
:105210002CF07F4120F07F4000B58142A2EB0302D9
:105220000FF2081CACEB504EC0F100009EF800E0FD
:105230004FEA4E0E00FB0EFC38BF49004FEA2C1C13
:1052400002F5FA020CFB0EF34FEACE1E4FEA112CC8
:105250004FEAC1210EEB635E42EB22420EFB0CFCD7
:105260004FEA1C5300FB03114FEA112C4FEA0131A6
:105270000EFB0CFC4FEADC4C00FB0C11C14228BFBA
:1052800009184CEB03335DF804EB10EB410143EBE1
:10529000C250B2F57C0F38BF704729D512F0F00F1D
:1052A0001CBF00F1C04000F00040704700818283C5
:1052B0008485868788898B8C8D8E8F919293959625
:1052C00097999A9C9D9FA0A2A3A5A7A8AAACAEB0AF
:1052D000B2B3B5B7B9BCBEC0C2C5C7C9CCCED1D4B4
:1052E000D7D9DCDFE2E6E9ECF0F3F7FAFE000000E4
:1052F0004FEA400C0CF1807CBCF17E4F28BF704718
:10530000B0F1C04000F0F6B890EA010F0CEAD113FA
:1053100048BF42F48072624538BF634507D213F438
:105320007F0F16D080EA010000F00040704710B5F2
:1053300000F09AF8097EFC3E00F005B880EA010012
:1053400000F00040704780EA010000F0004000F0EB
:10535000D1B812F47F0F04BF0248704780EA010001
:1053600000F0C8B80000C07FC10DD1F19E0206DB7D
:105370004FEA002343F0004323FA02F07047004253
:1053800007D54FEA4001B1F1FE4F02D24FF00000C5
:10539000704710B500F068F84992248000207047EB
:1053A0006FEA20007047000010F0004148BF404203
:1053B000B0FA80F310FA03F2C3F19D030BD051EA67
:1053C000C35101EB1220530638BF704700F10100B2
:1053D00008BF20F001007047B0FA80F310FA03F222
:1053E000C3F19D030AD0D90501EB1220530638BF43
:1053F000704700F1010008BF20F001007047000075
:1054000050EA010C00F113801CF5000F58BFBCF5E9
:10541000000F01D48842704707D710F5000F58BF1E
:1054200011F5000F15D488427047894270471CF56A
:10543000000F04D5BCF5000FF7D5814270474FF03F
:10544000807C1CEB400F38BF1CEB410F01D2814226
:10545000704710B500F008F8922449004FF0005052
:105460004FF08051FFF7B2BE0EF1020E2EF0030E88
:105470005EF8044B244204D44FEA4102B2F17F4F5C
:1054800011D84FEA4003B3F17F4F0CD80ED14FEA49
:10549000D07CB2F17F4F0CEB4C0C0CF1020C08BF2E
:1054A0004CEBD17C04E04FF0080C01E04FEAD17CDA
:1054B0000CEB4C0324FA03F404F00704B4F1040CDD
:1054C00006D20EEB840CBDE810404CF0010C604796
:1054D000DFE80CF0070802024FF00040A0F5800062
:1054E00010BD0846420018BFD2F1807288BF00F09C
:1054F000004010BDFF2141EAD050C005704751EA7D
:10550000000C00F113801CF5000F58BFBCF5000F14
:1055100001D48142704707D711F5000F58BF10F52D
:10552000000F15D481427047894270471CF5000F67
:1055300004D5BCF5000FF7D5884270474FF0807C4A
:105540001CEB410F38BF1CEB400F01D28842704763
:1055500080EA010081EA000180EA0100FFF779BFDB
:1055600090EA010F48BF81F000413FF5D4AD421AE7
:1055700004D882F00042A0EB020011444FEAD0525E
:105580004FF07F4C1CEA410FA2EBD15318BF9CEAAD
:10559000026F4AD04FF0004C4CEA00204CEA012147
:1055A00021FA03FCB0EB0C0C0FD412F0FE0F36D036
:1055B0005FEA4C001DD5001240EBC25038BF704767
:1055C0001CF03F0F18BF70470BE0A2F101025FEA29
:1055D0001C2040EBC25038BF70471CF07F0F18BF33
:1055E0007047C3F12003994014BF401E20F0010012
:1055F000704780084FEA122308BF7047B0FA80FC5A
:10560000A2EB0C02CCF1280C60FA0CF093EA122FFA
:1056100004BF00EBC25070474FEAC3707047130AD3
:105620005FEADC1008BF7047F6E79CEA026F04D01F
:1056300010EA5C0F08BF0020704710B5FFF714FF99
:1056400040DFF63E81F000407047FDF767BFFEF790
:10565000F9B90000000000000000002F0000000069
:105660000700070000147F147F1400242A7F2A12E9
:1056700000626408132300364955225000000503D8
:10568000000000001C224100000041221C00001408
:10569000083E08140008083E0808000000A060004A
:1056A00000080808080800006060000000201008DA
:1056B0000402003E5149453E0000427F4000004246
:1056C00061514946002141454B31001814127F10A9
:1056D000002745454539003C4A49493000017109D8
:1056E000050300364949493600064949291E00008C
:1056F0003636000000005636000000081422410033
:105700000014141414140000412214080002015162
:10571000090600324959513E007C1211127C007F6B
:1057200049494936003E41414122007F4141221C06
:10573000007F49494941007F09090901003E41496B
:10574000497A007F0808087F0000417F410000205F
:1057500040413F01007F08142241007F404040400B
:10576000007F020C027F007F0408107F003E414151
:10577000413E007F09090906003E4151215E007F3C
:10578000091929460046494949310001017F0101B3
:10579000003F4040403F001F2040201F003F403856
:1057A000403F006314081463000708700807006195
:1057B0005149454300007F41410000552A552A5573
:1057C000000041417F00000402010204004040400B
:1057D0004040000001020400002054545478007F2F
:1057E0004844443800384444442000384444487F06
:1057F00000385454541800087E0901020018A4A46B
:10580000A47C007F080404780000447D4000004030
:1058100080847D00007F102844000000417F40000C
:10582000007C04180478007C0804047800384444A0
:10583000443800FC242424180018242418FC007C7C
:105840000804040800485454542000043F444020F5
:10585000003C4040207C001C2040201C003C40308C
:10586000403C004428102844001CA0A0A07C004418
:1058700064544C4414141414141400000000000068
:1058800000000000000000000000000000F8000020
:105890000000000000333000000000100C06100C67
:1058A0000600000000000000000040C07840C07802
:1058B0004000043F04043F040400007088FC0830EA
:1058C0000000001820FF211E0000F008F000E01882
:1058D000000000211C031E211E0000F0088870003B
:1058E00000001E2123241927211010160E0000008D
:1058F00000000000000000000000000000E01804AC
:105900000200000000071820400000020418E00018
:1059100000000040201807000000404080F0804058
:1059200040000202010F01020200000000F000002E
:1059300000000101011F0101010000000000000042
:10594000000080B0700000000000000000000000B7
:105950000000000101010101010100000000000040
:1059600000000030300000000000000000008060F7
:105970001804006018060100000000E0100808107C
:10598000E000000F102020100F00001010F80000A1
:1059900000000020203F2020000000700808088838
:1059A0007000003028242221300000300888884808
:1059B00030000018202020110E000000C02010F838
:1059C000000000070424243F240000F80888880809
:1059D00008000019212020110E0000E0108888180E
:1059E0000000000F112020110E0000380808C838F0
:1059F00008000000003F00000000007088080888D0
:105A00007000001C222121221C0000E01008081058
:105A1000E0000000312222110F00000000C0C00091
:105A20000000000000303000000000000080000096
:105A30000000000080600000000000008040201096
:105A4000080000010204081020004040404040408F
:105A500040000404040404040400000810204080F2
:105A60000000002010080402010000704808080827
:105A7000F0000000003036010000C030C828E810F7
:105A8000E0000718272423140B000000C038E000B2
:105A90000000203C23020227382008F888888870FC
:105AA0000000203F202020110E00C0300808080808
:105AB0003800071820202010080008F808080810EF
:105AC000E000203F202020100F0008F88888E80818
:105AD0001000203F20202320180008F88888E808BC
