:020000040800F2
:10000000900F0020910500087D0200087F02000883
:100010008B02000897020008A302000800000000FD
:10002000000000000000000000000000AF02000817
:10003000B102000800000000A7050008B302000894
:10004000AB050008AB050008AB050008B7020008C7
:10005000AB050008AB050008B5020008AB050008B9
:10006000AB050008AB050008AB050008AB050008B0
:10007000AB050008AB050008AB050008AB050008A0
:10008000AB050008AB050008AB050008AB05000890
:10009000AB050008AB050008AB05000829340008D3
:1000A000AB050008AB050008AB050008AB05000870
:1000B0006F340008AB050008DD310008AB0500080F
:1000C000AB050008AB050008AB050008AB05000850
:1000D000AB0500089D280008B5570008AB050008CF
:1000E000AB050008AB050008AB05000800F002F8FE
:1000F00000F0B4F80AA090E8000C82448344AAF10E
:100100000107DA4501D100F0A9F8AFF2090EBAE80B
:100110000F0013F0010F18BFFB1A43F0010318473B
:1001200000C9000020C900000A444FF0000C10F87C
:10013000013B13F0070408BF10F8014B1D1108BF65
:1001400010F8015B641E05D010F8016B641E01F805
:10015000016BF9D113F0080F1EBF10F8014BAD1C55
:100160000C1B09D16D1E58BF01F801CBFAD505E073
:1001700014F8016B01F8016B6D1EF9D59142D6D3CD
:10018000704700000023002400250026103A28BFF5
:1001900078C1FBD8520728BF30C148BF0B607047F9
:1001A0006E2908F0B181702907F04F8566290BF0A0
:1001B000F08565290BF0ED8567290BF0EA8561294B
:1001C0000BF0E98503681B0A28BF41F0800169290B
:1001D00007F0C084642907F0BD84752907F0BA844C
:1001E0006F2908F0AD84782907F01B85E92908F00C
:1001F0004784E42908F04484F52908F04184EF2974
:1002000008F0AA84F82907F01A850368DB0928BFDB
:1002100041F08001632908F0C883732908F0CD8379
:10022000E32908F02387F32908F028870020704786
:100230001FB59DE8030008F0BBF808F0DFFC0400E0
:10024000002000210AF0E8FB401C60600020002133
:100250000AF0F8FBE0601FBD10B510BD09F062F9AF
:100260001146FFF7E5FF03F066F809F080F903B4E3
:10027000FFF7F2FF03BC09F0EDF9000070470EA193
:100280001C4802F0E7FA00BFFEE71BA1194802F084
:10029000E1FA00BFFEE727A1164802F0DBFA00BF33
:1002A000FEE733A1134802F0D5FA00BFFEE770471E
:1002B00070477047704770470D0A2A2A2A2A2A2A4F
:1002C0002A2A2A2A2A2A2A2A2A2A2A2A2A486172F1
:1002D000644661756C745F48616E646C65722A2A4D
:1002E0002A2A2A2A2A2A2A2A2A2A2A2A2A2A2A2A6E
:1002F0002A0D0A00004800400D0A2A2A2A2A2A2A22
:100300002A2A2A2A2A2A2A2A2A2A2A2A2A4D656DAC
:100310004D616E6167655F48616E646C65722A2A23
:100320002A2A2A2A2A2A2A2A2A2A2A2A2A2A2A2A2D
:100330002A0D0A000D0A2A2A2A2A2A2A2A2A2A2AC1
:100340002A2A2A2A2A2A2A2A2A4275734661756C81
:10035000745F48616E646C65722A2A2A2A2A2A2AE6
:100360002A2A2A2A2A2A2A2A2A2A2A2A0D0A00007E
:100370000D0A2A2A2A2A2A2A2A2A2A2A2A2A2A2A1A
:100380002A2A2A2A2A55736167654661756C745F4B
:1003900048616E646C65722A2A2A2A2A2A2A2A2A25
:1003A0002A2A2A2A2A2A2A2A2A2A0D0A0000000092
:1003B0000CB50020019000906C48006840F480303B
:1003C0006A49086000BF6948006800F40030009086
:1003D0000198401C0190009818B90198B0F5A06FE1
:1003E000F1D16248006800F4003010B101200090A3
:1003F00001E0002000900098012843D15C4800688B
:1004000040F010005A4908600846006820F00300D8
:1004100008600846006840F00200086053484068E1
:10042000524948600846406848600846406840F4C1
:10043000806048600846406820F47C1048600846A8
:10044000406840F4E81048600846006840F080705A
:10045000086000BF4548006800F000700028F9D02F
:100460004248406820F00300404948600846406820
:1004700040F00200486000BF3C48406800F00C00BB
:100480000828F9D10CBD10B5FFF792FF10BD10B5CB
:100490003648006840F0010034490860084640686A
:1004A00034490840314948600846006832490840EC
:1004B0002E4908600846006820F48020086008463D
:1004C000406820F4FE0048604FF41F008860FFF78A
:1004D000DAFF4FF000602949086010BD10B5002117
:1004E00000200022214B5B6803F00C0121B104299C
:1004F00006D0082928D107E0214B224C236027E0B1
:100500001F4B204C236023E0184B5B6803F47010F2
:10051000164B5B6803F48032022303EB904022B950
:10052000194B4343174C23600DE0104B5B6803F4F9
:10053000003323B1144B4343124C236003E0104BB0
:100540004343104C236003E00D4B0E4C236000BF6F
:1005500000BF064B5B68C3F303130C4CE15C094B13
:100560001B68CB40074C236010BD00000010024008
:10057000002002400000FFF8FFFFF6FE08ED00E05B
:1005800000127A000000002000093D000400002055
:100590000948804709480047FEE7FEE7FEE7FEE717
:1005A000FEE7FEE7FEE7FEE7FEE7FEE70448054953
:1005B000054A064B704700008F040008ED00000854
:1005C00090050020900F0020900700209007002049
:1005D00031490143314A1160704770B50021002351
:1005E0000F22C47804B32D4C246804F4E064C4F5ED
:1005F000E064210AC1F10403CA40447804FA03F11B
:100600008478144021430901254C0678A1550478CB
:1006100004F01F050124AC4005786D11AD0005F113
:10062000E025C5F8004109E0047804F01F05012425
:10063000AC401C4D0678761145F8264070BD1A4A2C
:100640000A400243154B1B1F1A60704739B1134A09
:10065000121D12680243114B1B1D1A6006E00F4A5F
:10066000121D126882430D4B1B1D1A60704704282F
:1006700008D14FF0E021096941F004014FF0E02278
:10068000116107E04FF0E021096921F004014FF00A
:10069000E0221161704700000000FA050CED00E057
:1006A00000E400E080E100E080FFFF1F10B5044699
:1006B000CC48844208D10121042000F02DFB002108
:1006C000042000F029FB46E0C748844208D10121FC
:1006D000082000F021FB0021082000F01DFB3AE07B
:1006E000C248844208D10121102000F015FB0021EE
:1006F000102000F011FB2EE0BD48844208D10121FA
:10070000202000F009FB0021202000F005FB22E062
:10071000B848844208D10121402000F0FDFA0021B0
:10072000402000F0F9FA16E0B348844208D10121D4
:10073000802000F0F1FA0021802000F0EDFA0AE0BC
:10074000AE48844207D10121801500F0E5FA00216E
:10075000A01500F0E1FA10BD10B50121084600F027
:10076000DBFA0021012000F0D7FA10BD2DE9F0419D
:10077000024600250026002000230024002791F8CF
:1007800003C00CF00F0591F803C00CF0100CBCF185
:10079000000F03D091F802C04CEA050591F800C0A3
:1007A000BCF1000F31D0146800202BE04FF0010C99
:1007B0000CFA00F3B1F800C00CEA03069E4220D107
:1007C00083004FF00F0C0CFA03F7BC4305FA03FC4F
:1007D0004CEA040491F803C0BCF1280F06D14FF095
:1007E000010C0CFA00FCC2F814C00AE091F803C036
:1007F000BCF1480F05D14FF0010C0CFA00FCC2F817
:1008000010C0401C0828D1D31460B1F800C0BCF15E
:10081000FF0F34DD546800202EE000F1080C4FF08B
:10082000010808FA0CF3B1F800C00CEA03069E4276
:1008300021D183004FF00F0C0CFA03F7BC4305FAEB
:1008400003FC4CEA040491F803C0BCF1280F05D165
:1008500000F1080C08FA0CF8C2F8148091F803C0F3
:10086000BCF1480F07D100F1080C4FF0010808FA5D
:100870000CF8C2F81080401C0828CED35460BDE8A4
:10088000F0814FF6FF710180022181700421C17057
:1008900070470246002093680B400BB1012000E036
:1008A000002070470146886880B2704702460020E9
:1008B000D3680B400BB1012000E0002070470146D7
:1008C000C86880B2704701617047416170470AB1E2
:1008D000016100E041617047C16070474FF48032B0
:1008E0000A4382618161826182698269704702463E
:1008F0000020434B18684FF68073184040EA0210FE
:1009000008433F4B186070473E49C8617047F0B5D7
:100910000A46002300240021002500F00046B6F11D
:10092000004F02D1364EF16901E0354E7168C0F3D7
:10093000034583B200F44016B6F5401F08D121F0FC
:1009400070612F4E766826F070662D4F7E6012E043
:1009500000F48016B6F5801F06D1032606FA05F4CA
:10096000A14341F0706106E0460D360103FA06F638
:10097000B14341F0706122B1460D360103FA06F62B
:10098000314300F00046B6F1004F02D11C4EF16138
:1009900001E01B4E7160F0BD30B500228B071C0FCB
:1009A0000F2303FA04F2164B08338C1053F824304B
:1009B0009343134C08348D1044F8253023468C1093
:1009C00053F824308C07240F00FA04F423430C4C12
:1009D00008348D1044F8253030BD0A49DC310860F8
:1009E0007047000000080140000C01400010014069
:1009F0000014014000180140001C0140002001408B
:100A00000000014000002042DF48006840F0010083
:100A1000DD49086008464068DC490840DA4948601A
:100A200008460068DA490840D74908600846006867
:100A300020F4802008600846406820F4FE004860EA
:100A40004FF41F0088607047CF49096821F4803156
:100A5000CD4A11601146096821F480211160B0F57A
:100A6000803F03D0B0F5802F0ED106E0C64909685B
:100A700041F48031C44A116007E0C349096841F478
:100A8000A021C14A116000E000BF00BF704710B54F
:100A900001460022002300204A11012A02D1BA4C4B
:100AA000236806E0022A02D1B74C236A01E0B64C63
:100AB000636A01F01F02012494401C400CB1012024
:100AC00000E0002010BD38B5002000900024002573
:100AD00000BF3120FFF7DBFF05460098401C009067
:100AE0000098B0F5A06F01D0002DF2D03120FFF7B3
:100AF000CEFF08B1012400E00024204638BD0146A5
:100B00000020A14A106820F0F80040EAC1001060FF
:100B10007047A04908607047024600209A4B586809
:100B200020F47C1042EA01031843974B5860704749
:100B300098490866704701460020934A506820F0A3
:100B400003000843506070478F48406800F00C0075
:100B50007047014600208C4A506820F0F00008439E
:100B60005060704701460020874A506820F4E060DA
:100B700008435060704701460020834A506820F4C3
:100B8000605040EAC1005060704729B17E4A527AF5
:100B900002437D4B5A7204E07B4A527A82437A4B7D
:100BA0005A7270477B49D83108607047014600206F
:100BB000754A506820F44040084350607047002157
:100BC000714A20321170704A82F82010012802D038
:100BD00004280AD104E001216B4A2032117005E09B
:100BE0000521694A2032117000E000BF00BF704744
:100BF0006949086070476449096A0143624A1162A1
:100C00007047654944390860704730B500210022BB
:100C1000002400235C4D6D6805F00C0121B104290E
:100C200005D0082923D105E05C4D056022E05B4D2D
:100C300005601FE0544D6D6805F47012524D6D68EB
:100C400005F48034022505EB92421CB9544D5543FE
:100C500005600BE04C4D6D6805F400351DB1504D3D
:100C60005543056002E04D4D5543056002E04B4D94
:100C7000056000BF00BF444D6D6805F0F001090933
:100C8000484D6B5C0568DD4045603F4D6D6805F47F
:100C9000E061090A434D6B5C4568DD4085603A4D73
:100CA0006D6805F46051C90A3E4D6B5C4568DD40D6
:100CB000C560354D6D6805F44041890B3A4D6B5C5C
:100CC000C568B5FBF3F5056130BD29B12E4A5269FF
:100CD00002432D4B5A6104E02B4A526982432A4B4E
:100CE0005A61704729B1284A92690243264B9A619A
:100CF00004E0254A92698243234B9A61704729B1E7
:100D0000214AD2690243204BDA6104E01E4AD269CB
:100D100082431D4BDA61704729B11B4AD2680243F6
:100D2000194BDA6004E0184AD2688243164BDA6045
:100D3000704729B1144A12690243134B1A6104E047
:100D4000114A12698243104B1A61704712494039A7
:100D5000086070470F49C86470470B49C8717047F5
:100D60000948406A40F08070074948627047014670
:100D70000020054A92680A400AB1012000E00020E4
:100D80007047014988727047001002400000FFF868
:100D9000FFFFF6FE000042428004424200127A0049
:100DA00000093D00140000202400002010B5044676
:100DB000FB48844209D101218803FFF7ADFF0021E0
:100DC0004FF48040FFF7A8FF32E0F648844209D193
:100DD00001214804FFF7ADFF00214FF40030FFF779
:100DE000A8FF25E0F048844209D101218804FFF7DB
:100DF000A0FF00214FF48020FFF79BFF18E0EB4895
:100E0000844209D10121C804FFF793FF00214FF468
:100E10000020FFF78EFF0BE0E548844208D1012156
:100E20000805FFF786FF00214FF48010FFF781FFD0
:100E300010BD2DE9F04786B005460E460024A246B7
:100E400000BFA1460027B08900B100BF2F462C8A01
:100E50004CF6FF700440F08804432C82AC894EF6B7
:100E6000F3100440B0883189084371890843044372
:100E7000AC81AC8A4FF6FF400440B0890443AC8299
:100E800001A8FFF7C2FEC648874202D1DDF810A0D4
:100E900001E0DDF80CA0A88900F4004040B10AEBA5
:100EA000CA0000EB0A1031684900B0FBF1F807E016
:100EB0000AEBCA0000EB0A1031688900B0FBF1F8B8
:100EC0006420B8FBF0F004012009642101FB1089C3
:100ED000A88900F4004040B1322000EBC900B0FB0B
:100EE000F1F000F00700044308E0322000EB0910A5
:100EF0006421B0FBF1F000F00F0004432C8106B038
:100F0000BDE8F0874FF41651016000218180C18057
:100F100001810C21418100218181704710B5024679
:100F20000020108A4FF2FF0318400B884C8823439F
:100F30008C882343CC8823431843108210BD0021A2
:100F4000018041808180C180704721B1828942F453
:100F50000052828104E082894DF6FF731A4082813B
:100F60007047F0B50346002400260025002040F617
:100F70006A17B94200D100BF1846C1F3421401F00C
:100F80001F06012707FA06F5012C01D10C3004E0F9
:100F9000022C01D1103000E014301AB107682F4341
:100FA000076002E00768AF430760F0BD1AB1838AAB
:100FB0000B43838202E0838A8B4383827047028AD9
:100FC0004FF6F0731A400282028A0A430282704787
:100FD00082894FF2FF731A40828182890A4382819B
:100FE000704721B1828942F00202828104E0828945
:100FF0004FF6FD731A4082817047028A4FF6DF7305
:101000001A400282028A0A430282704721B1028A90
:1010100042F48042028204E0028A4BF6FF731A40D7
:1010200002827047C1F308028280704701468888B7
:10103000C0F308007047818941F001018181704748
:10104000028BD2B20283028B42EA012202837047F2
:10105000028B02F47F420283028B0A4302837047B1
:1010600021B1828A42F02002828204E0828A4FF615
:10107000DF731A408282704721B1828A42F01002E7
:10108000828204E0828A4FF6EF731A4082827047B0
:1010900021B1828A42F00802828204E0828A4FF6FD
:1010A000F7731A408282704721B1828942F400426C
:1010B000828103E08289C2F30E028281704721B1EE
:1010C000828A42F40062828204E0828A4FF2FF73D5
:1010D0001A4082827047828A4FF6FB731A408282DE
:1010E000828A0A438282704721B1828A42F00202D8
:1010F000828204E0828A4FF6FD731A408282704732
:1011000002460020B1F5007F00D100BF13880B40DC
:101110000BB1012000E00020704701F40072B2F52D
:10112000007F00D100BFCA430280704770B50246FD
:10113000002400230025002040F66A16B14200D1A9
:1011400000BFC1F3421501F01F03012606FA03F3A5
:10115000012D02D19689334006E0022D02D1168A74
:10116000334001E0968A33400C12012606FA04F45B
:101170001688344013B10CB1012000E0002070BD8E
:1011800010B50022002340F66A14A14200D100BF2E
:101190000A1201249440A3B2DC43048010BD000075
:1011A000003801400044004000480040004C00402E
:1011B00000500040002044490860091D0860091DD6
:1011C0000860091D086041483F49143108607047B4
:1011D00000213D498279002A3AD00A461268036804
:1011E0009A430B461A600A1D126803689A430B1D46
:1011F0001A60027911440A6803681A430A60324A85
:101200000832126803689A432F4B08331A601A1D7C
:10121000126803689A432C4B0C331A604279102AE7
:101220000ED11A1F126803681A43274B08331A603D
:101230001A1D126803681A43234B0C331A600DE021
:101240002149427911440A6803681A430A6005E09B
:10125000027911440A6803689A430A6070470021C2
:10126000016001710C2141710021817170471649A3
:10127000103109680143144A103211607047014669
:101280000020114A143212680A400AB1012000E01D
:10129000002070470C491431086070470146002057
:1012A0000022094B1B6803EA0102074B14331B6839
:1012B0000B4013B10AB1012000E000207047024941
:1012C000143108607047000000040140FFFF0F0068
:1012D00010B50446FA48844208D101214015FFF7B1
:1012E0001BFD00216015FFF717FD17E0F54884424C
:1012F00008D101210015FFF70FFD00212015FFF790
:101300000BFD0BE0F048844208D10121C803FFF730
:1013100003FD00214FF40040FFF7FEFC10BD30B587
:101320000246002000235068E84C20400D790C68EC
:1013300044EA0524204350609068E54C2040D1E900
:1013400002542C434D7944EA450420439060D06A0E
:1013500020F470000C7C641EE4B2234340EA035086
:10136000D06230BD00210160017141718160C160B6
:1013700001210174704721B1826842F0010282604C
:1013800003E0826822F001028260704721B1826826
:1013900042F48072826003E0826822F4807282608C
:1013A000704710B50023CBB21AB144681C434460A7
:1013B00002E044689C43446010BD816841F008012C
:1013C00081607047014600208A6802F008020AB175
:1013D000012000E000207047816841F00401816035
:1013E0007047014600208A6802F004020AB1012019
:1013F00000E00020704721B1826842F4A0028260C0
:1014000003E0826822F4A002826070470146002057
:101410008A6802F480020AB1012000E000207047CF
:1014200010B50A4600210023416821F46041531E93
:1014300041EA4331416010BD21B1426842F400628B
:10144000426003E0426822F4006242607047F0B5F7
:1014500004460D4600200021092D11DDE068A5F1AC
:101460000A0606EB4607072606FA07F18843A5F1A8
:101470000A0606EB460603FA06F10843E0600CE0B4
:10148000206905EB4507072606FA07F1884305EBB7
:10149000450603FA06F108432061072A0FDA606B5C
:1014A000561E06EB86071F2606FA07F18843561ECE
:1014B00006EB860605FA06F10843606322E00D2A72
:1014C0000FDA206BD61F06EB86071F2606FA07F1F8
:1014D0008843D61F06EB860605FA06F1084320630B
:1014E00010E0E06AA2F10D0606EB86071F2606FA59
:1014F00007F18843A2F10D0606EB860605FA06F110
:101500000843E062F0BD21B1826842F4801282603B
:1015100003E0826822F48012826070470146C86C42
:1015200080B2704766484C300068704721B142680D
:1015300042F48062426003E0426822F480624260CA
:10154000704721B1426842F48052426003E0426831
:1015500022F48052426070470A460021816821F4DB
:10156000E04111438160704721B1826842F400423A
:10157000826003E0826822F400428260704721B1F9
:10158000826842F40212826003E0826822F402124E
:1015900082607047014600208A6802F400120AB196
:1015A000012000E000207047F0B5044615460020F9
:1015B00000220026092911DDE068A1F10A0707EBE6
:1015C000470C072707FA0CF29043A1F10A0707EB33
:1015D000470703FA07F21043E0600CE0206901EBD3
:1015E000410C072707FA0CF2904301EB410703FA7D
:1015F00007F210432061A06BC0F30156EF1C06F107
:10160000010CA7EB0C0707EB870C1F2707FA0CF25E
:101610009043EF1C06F1010CA7EB0C0707EB8707C3
:1016200001FA07F21043A063F0BD10B50A4600218D
:101630000023816B21F44011531E41EA0351816361
:1016400010BD08B5002300930090009B0B4400934D
:10165000009B1A6008BD08B5024600200090009269
:1016600001F12800009B184400900098006880B2A7
:1016700008BD0A4600214168164B194011434160DC
:1016800070474162826270470A460021416821F03A
:101690001F0111434160704740B109490831096891
:1016A00041F40001064A0832116007E0044908319C
:1016B000096821F40001024A0832116070470000F5
:1016C0000024014000280140003C0140FFFEF0FFE3
:1016D000FDF7F1FFFFFD3FFF0246002013680B40BE
:1016E0000BB1012000E000207047CA430260704740
:1016F00070B502460020002300240B125568CEB2BC
:1017000005EA060415681D4015B10CB1012000E082
:10171000002070BD00220A12D3430360704700000E
:1017200010B50446FE48844208D10121C014FFF7D9
:10173000F3FA0021E014FFF7EFFAC4E0B4F1804FB0
:1017400008D101210846FFF7F4FA00210120FFF734
:10175000F0FAB8E0F348844208D101210220FFF7F3
:10176000E8FA00210220FFF7E4FAACE0EE488442F8
:1017700008D101210420FFF7DCFA00210420FFF743
:10178000D8FAA0E0E948844208D101210820FFF7F7
:10179000D0FA00210820FFF7CCFA94E0E448844214
:1017A00008D101211020FFF7C4FA00211020FFF713
:1017B000C0FA88E0DF48844208D101212020FFF7E9
:1017C000B8FA00212020FFF7B4FA7CE0DA4884421E
:1017D00008D101214014FFF79FFA00216014FFF7A0
:1017E0009BFA70E0D548844209D10121C804FFF773
:1017F00093FA00214FF40020FFF78EFA63E0D048FF
:10180000844209D101210805FFF786FA00214FF42F
:101810008010FFF781FA56E0CA48844209D10121BD
:101820004805FFF779FA00214FF40010FFF774FA2A
:1018300049E0C548844208D101214020FFF779FAE8
:1018400000214020FFF775FA3DE0C048844208D1EE
:1018500001218020FFF76DFA00218020FFF769FA4F
:1018600031E0BB48844208D101218015FFF761FABD
:101870000021A015FFF75DFA25E0B648844209D1A2
:1018800001210804FFF748FA00214FF48030FFF7E8
:1018900043FA18E0B048844209D101214804FFF717
:1018A0003BFA00214FF40030FFF736FA0BE0AB486B
:1018B000844208D101218804FFF72EFA00214FF459
:1018C0008020FFF729FA10BD00220288944B98422D
:1018D0000ED0994B98420BD0B0F1804F08D0914B6D
:1018E000984205D0904B984202D0904B984204D138
:1018F0004FF68F731A404B881A438D4B984207D08E
:101900008C4B984204D04FF6FF431A40CB881A43C1
:1019100002808B8883850B880385814B98420BD08E
:10192000854B984208D08B4B984205D08A4B984201
:1019300002D08A4B984201D10B7A0386012383821D
:10194000704770B5002400220023058C4FF6FE7608
:1019500035400584028C8388048B4FF68F752C40AC
:10196000B51E2C400D882C43751E2A400D892A4334
:101970004D882A436A4DA8420BD06F4DA84208D02B
:10198000744DA84205D0744DA84202D0734DA842B0
:1019900013D14FF6F7752A404D892A434FF6FB7550
:1019A0002A408D882A434FF6FF652B404FF6FF559E
:1019B0002B408D892B43CD892B4383800483CD8895
:1019C0008586028470BD70B5002400220023058C3A
:1019D0004FF6EF7635400584028C8388048B48F6F9
:1019E000FF752C404FF6FF452C400D884FF6FF76D3
:1019F00006EA05252C434FF6DF752A400D8906EAD5
:101A000005152A434D8806EA05152A43444DA84288
:101A100002D0494DA8421DD14FF67F752A404D890D
:101A20004FF6FF7606EA05152A434FF6BF752A40A2
:101A30008D8806EA05152A434FF6FF352B404FF2F5
:101A4000FF752B408D8906EA85052B43CD8906EA73
:101A500085052B4383800483CD880587028470BD70
:101A600070B5002400220023058C4FF6FF66354038
:101A70000584028C8388848B4FF68F752C404FF63B
:101A8000FC752C400D882C434FF6FF552A400D89DC
:101A90004FF6FF7606EA05252A434D8806EA052516
:101AA0002A431F4DA84202D0234DA8421DD14FF218
:101AB000FF752A404D894FF6FF7606EA05252A4331
:101AC0004FF6FF352A408D8806EA05252A434EF653
:101AD000FF752B404DF6FF752B408D8906EA0515E5
:101AE0002B43CD8906EA05152B4383808483CD885B
:101AF0008587028470BD70B5002200230024058C08
:101B00004EF6FF7635400584038C8488828B48F638
:101B1000FF752A404FF6FF452A400D8820E000005F
:101B2000002C01400004004000080040000C004070
:101B3000001000400014004000340140004C0140FF
:101B4000005001400054014000180040001C0040BB
:101B50000020004000400140004401400048014096
:101B60004FF6FF7606EA05252A434DF6FF752B4012
:101B70000D8906EA05352B434D8806EA05352B43CA
:101B8000FA4DA84202D0FA4DA84208D14BF6FF7593
:101B90002C408D894FF6FF7606EA85152C4384800C
:101BA0008283CD88A0F84050038470BD828B4FF2B1
:101BB000FF331A408283828B4FF6FF7303EA0123BF
:101BC0001A4382837047F0B50C4615460022002167
:101BD0000026078C4EF6FF7C07EA0C070784828BF1
:101BE000018C4FF6FF7707EA043640F6FF473A408C
:101BF0004FF6FF7707EA05273A434FF6FF7707EAE4
:101C000003373A43D94FB8420ED0D94FB8420BD020
:101C1000B0F1804F08D0D74FB84205D0D64FB84268
:101C200002D0D64FB84206D14DF6FF77394046F480
:101C30008057394305E047F6FF57394044F4805751
:101C4000394382830184F0BD828B4FF6F3731A40CF
:101C50008283828B0A4382837047F0B50C46154617
:101C6000002200210026078C4FF6FF6C07EA0C07C4
:101C70000784828B018C4FF6FF7707EA04264FF624
:101C80000C773A404FF6FF7707EA03172F433A43A2
:101C9000B64FB8420ED0B64FB8420BD0B0F1804F1D
:101CA00008D0B44FB84205D0B34FB84202D0B34FBA
:101CB000B84206D14FF6FF57394046F48077394392
:101CC00005E04FF2FF57394044F48077394382836F
:101CD0000184F0BD028B4FF2FF331A400283028B66
:101CE0004FF6FF7303EA01231A4302837047F0B5EE
:101CF0000C461546002200210026078C4FF6EF7C8B
:101D000007EA0C070784028B018C4FF6FF7707EA7E
:101D1000041640F6FF473A404FF6FF7707EA0337CD
:101D20003A434FF6FF7707EA05273A438F4FB84209
:101D30000ED08F4FB8420BD0B0F1804F08D08D4FEE
:101D4000B84205D08C4FB84202D08C4FB84206D171
:101D50004FF6DF77394046F01007394305E04FF67C
:101D60005F77394044F01007394302830184F0BDA6
:101D7000028B4FF6F3731A400283028B0A430283ED
:101D80007047F0B50C46154600220021068C4FF630
:101D9000FE773E400684028B018C4FF60C76324073
:101DA0007E1C06EA03162E433243704EB0420ED01C
:101DB0006F4EB0420BD0B0F1804F08D06D4EB042A4
:101DC00005D06D4EB04202D06C4EB04206D14FF6F7
:101DD000FD76314044F00106314305E04FF6F576DB
:101DE000314044F00106314302830184F0BD70B5F7
:101DF00005460C465D4885420ED05D4885420BD0B5
:101E0000B5F1804F08D05B48854205D05A488542DD
:101E100002D05A48854200D100E000BF208850B966
:101E20002389A28861882846FFF7ABFFE18828460E
:101E3000FFF79EFF25E0208804280AD12389A28885
:101E400061882846FFF753FFE1882846FFF742FFE5
:101E500017E0208808280AD12389A28861882846AB
:101E6000FFF7FBFEE1882846FFF7EEFE09E0238935
:101E7000A28861882846FFF7A6FEE1882846FFF77A
:101E800095FE70BD2DE9F04105460C460026012760
:101E9000608808B9022600E00026A088012801D148
:101EA000022700E001272088A0B92389A288618841
:101EB0002846FFF766FFE1882846FFF759FF238988
:101EC0003A4631462846FFF712FFE1882846FFF7D9
:101ED00001FF13E02389A28861882846FFF707FFE6
:101EE000E1882846FFF7F6FE23893A463146284620
:101EF000FFF747FFE1882846FFF73AFFBDE8F0818A
:101F00000A884B881A438B881A43CB881A430B895B
:101F10001A434B891A438B891A43A0F8442070470F
:101F20004FF6FF71818000210180C18041800172E4
:101F300070470021018041808180C1800181418101
:101F40008181C18170470021018041800121818010
:101F50000021C18001817047002101804180818082
:101F6000C18001814181818170470000002C0140C6
:101F7000003401400004004000080040000C004014
:101F800021B1028842F00102028004E002884FF68B
:101F9000FE731A400280704731B1B0F8442042F419
:101FA0000042A0F8442005E0B0F84420C2F30E023D
:101FB000A0F8442070471AB183890B43838102E063
:101FC00083898B43838170478182704741EA020392
:101FD000A0F8483070471AB183890B43838102E02F
:101FE00083898B438381704701894FF6F8721140D2
:101FF000018170470A46002101894FF68F7319400D
:1020000011430181704730B504460D4629462046EC
:10201000FFF7F0FF208940F00700208130BD2DE957
:10202000F04104460D4616461F46602D06D13B463C
:10203000012231462046FFF75AFE05E03B460122C9
:1020400031462046FFF79DFE29462046FFF7D2FF86
:10205000208940F007002081BDE8F08130B50C46B2
:1020600000210189C9B24FF6FF7505EA0325154322
:1020700025432943018130BD2DE9F04105460E4637
:1020800017469846002443463A4631462846FFF70D
:10209000E5FF2C894FF6F870044044F007044FF632
:1020A0008F70044044F070042C81BDE8F081F0B5DD
:1020B00004460D4616461F463B46324629462046F4
:1020C000FFF7CCFF208940F480402081F0BD0185DE
:1020D000828270470A46002101884FF68F731940AB
:1020E000114301807047F0B50C4615461E4600218D
:1020F000002200230189028B038C4FF6F8773940C8
:1021000021434FF6FC473A4040F201173A434FF65D
:10211000DD773B404FF6FF7707EA06172F433B4337
:10212000018102830384F0BD0A460021018B4FF632
:102130008F7319401143018370470A460021018BB8
:1021400048F6FF7319404FF6FF7303EA0223194361
:10215000018370470A460021818B4FF68F73194027
:102160001143818370470A460021818B48F6FF7333
:1021700019404FF6FF7303EA022319438183704726
:1021800021B1028842F08002028004E002884FF60A
:102190007F731A400280704721B1828842F00402A6
:1021A000828004E082884FF6FB731A408280704779
:1021B00021B1828842F00802828004E082884FF6D2
:1021C000F7731A408280704721B1828842F0010281
:1021D000828004E082884FF6FE731A408280704746
:1021E0000A460021018B4FF6F77319401143018312
:1021F00070470A460021018B4FF2FF7319404FF6DA
:10220000FF7303EA02231943018370470A46002142
:10221000818B4FF6F77319401143818370470A464B
:102220000021818B4FF2FF7319404FF6FF7303EAD1
:1022300002231943818370470A460021018B4FF620
:10224000FB7319401143018370470A460021018B3B
:102250004FF6FF3319404FF6FF7303EA0223194389
:10226000018370470A460021818B4FF6FB731940AA
:102270001143818370470A460021818B4FF6FF335B
:1022800019404FF6FF7303EA022319438183704715
:102290000A460021018B4FF67F73194011430183D9
:1022A00070470A460021018BC1F30E014FF6FF7300
:1022B00003EA02231943018370470A460021818BF8
:1022C0004FF67F7319401143818370470A460021FE
:1022D000818BC1F30E014FF6FF7303EA022319430A
:1022E000818370470A460021018C4FF6FD73194027
:1022F0001143018470470A460021018C4FF6F773A1
:1023000019401143018470470A460021018C4FF6A1
:10231000DF7319404FF6FF7303EA02131943018478
:1023200070470A460021018C4FF67F7319404FF623
:10233000FF7303EA02131943018470470A46002120
:10234000018C4FF6FF5319404FF6FF7303EA022347
:102350001943018470470A460021018C4FF2FF7334
:1023600019404FF6FF7303EA0223194301847047B3
:102370000A460021018C4DF6FF7319404FF6FF739A
:1023800003EA023319430184704730B50023012466
:102390008C40A3B2048C9C430484048C02FA01F5A3
:1023A000ADB22C43048430BD30B5002304248C40EE
:1023B000A3B2048C9C430484048C02FA01F5ADB2F0
:1023C0002C43048430BD70B5034600200024184619
:1023D000183001258D40ACB21D8CA5431D8409B178
:1023E000082909D100EB6100056825F0700505603A
:1023F0000568154305600EE00D1FC5F34E05284422
:10240000056825F4E045056005684FF6FF7606EAA5
:1024100002263543056070BD21B1028842F00202F8
:10242000028004E002884FF6FD731A400280704774
:1024300021B1028842F00402028004E002884FF6D3
:10244000FB731A400280704721B1828842F08002FB
:10245000828004E082884FF67F731A408280704742
:1024600002884FF6F7731A40028002880A430280FE
:10247000704782884FF68F731A40828082880A43A1
:102480008280704702894FF6F8731A4002810289F0
:102490000A430281704702894FF67F731A40028116
:1024A00002890A43028170478184704781857047A1
:1024B000818670470187704781877047A0F8401078
:1024C000704702884FF6FF431A40028002880A4391
:1024D000028070470146888E70470146088F70471A
:1024E0000146888F70470146B1F8400070470146A9
:1024F000888C70470146088D704702460020138A79
:102500000B400BB1012000E000207047CA4302825B
:10251000704730B50246002000230024158A05EAE2
:102520000103958905EA010413B10CB1012000E013
:10253000002030BDCA430282704700004FF0E02007
:10254000006920F004004FF0E021086109203649BD
:1025500008700846007800EB4001C1EBC0104FF650
:10256000FF7101EAC000314908807047002120F066
:102570007F402D4A127842434FF0E0235A610022F7
:102580009A6101221A6100BF4FF0E022116901F047
:1025900001021AB101F48032002AF5D000224FF076
:1025A000E0231A619A617047002100B9704720F05A
:1025B0007F401E4A128842434FF0E0235A610022B6
:1025C0009A6101221A6100BF4FF0E022116901F007
:1025D00001021AB101F48032002AF5D000224FF036
:1025E000E0231A619A6100BFE0E770B50446002657
:1025F00000254FF4FA7094FBF0F0C6B24FF4FA7075
:1026000094FBF0F100FB114085B205E04FF4FA7045
:10261000FFF7CAFF701EC6B2002EF7D115B12846CB
:10262000FFF7C2FF70BD0000280000202A00002034
:1026300010B586B0044601210420FEF753FB0121AA
:102640008803FEF74FFB18208DF817004FF4007039
:10265000ADF8140003208DF8160005A99548FEF783
:1026600085F804208DF817000002ADF8140003204F
:102670008DF8160005A98F48FEF778F80194002020
:10268000ADF810000C20ADF80E000020ADF80C00E5
:10269000ADF80A00ADF8080001A98748FEF7C9FBAC
:1026A00001218548FEF751FC012240F22551824864
:1026B000FEF757FC25208DF8000001208DF803005F
:1026C00000208DF8010002208DF802006846FDF719
:1026D00084FF06B010BD10B586B004460121042069
:1026E000FEF700FB01214804FEF709FB18208DF8D6
:1026F00017000420ADF8140003208DF8160005A97A
:102700006C48FEF733F804208DF817000820ADF868
:10271000140003208DF8160005A96648FEF726F878
:1027200001940020ADF810000C20ADF80E00002040
:10273000ADF80C00ADF80A00ADF8080001A95F483B
:10274000FEF777FB01215D48FEF7FFFB012240F217
:1027500025515A48FEF705FC26208DF8000001207F
:102760008DF8030000208DF801008DF80200684606
:10277000FDF733FF06B010BD10B586B00446012149
:102780000820FEF7AFFA01218804FEF7B8FA1820F6
:102790008DF817004FF48060ADF8140003208DF819
:1027A000160005A94648FDF7E1FF04208DF8170043
:1027B0004002ADF8140003208DF8160005A940482A
:1027C000FDF7D4FF4FF4E13001900020ADF8100088
:1027D0000C20ADF80E000020ADF80C00ADF80A009A
:1027E000ADF8080001A93748FEF723FB0121354861
:1027F000FEF7ABFB012240F225513248FEF7B1FB58
:1028000027208DF8000001208DF8030000208DF8AE
:10281000010003208DF802006846FDF7DEFE06B0D9
:1028200010BD2DE9F04107460C46154600260DE087
:1028300014F8011B3846FEF7F5FB00BF402138466F
:10284000FEF75EFC0028F9D0701C86B2AE42EFDBCA
:10285000BDE8F0810FB430B5CBB0054601AC50A84F
:1028600000904FF4947101A8009B4F9A05F0D6F8A0
:10287000002000900BE014F8011B2846FEF7D2FB65
:1028800000BF40212846FEF73BFC0028F9D0207805
:102890000028F0D14BB030BC5DF814FB10B540F20D
:1028A00025510548FEF742FC18B120210248FEF7E9
:1028B00034FC10BD000801400038014000440040D5
:1028C000000C01400048004010B5044684F00102AD
:1028D0004FF400511A48FDF7FAFF1A48047010BD72
:1028E00008B501211020FEF7FDF910208DF8030036
:1028F0004002ADF8000003208DF802006946104840
:10290000FDF734FF0020FFF7DFFF08BD08B5012108
:102910000820FEF7E7F910208DF803004FF4E0409F
:10292000ADF8000003208DF8020069460648FDF767
:102930001DFF4FF4E0410448FDF7C5FF08BD00004E
:10294000001001402C000020000C01401FB50121A7
:102950000820FEF7C7F901210846FEF7C3F9482011
:102960008DF80F004FF48070ADF80C0003208DF847
:102970000E0003A91448FDF7F9FE08210120FEF717
:102980000BF84FF48070019000208DF808000C20A7
:102990008DF8090001208DF80A0001A8FEF718FC47
:1029A00017208DF8000001208DF8010000208DF81F
:1029B000020001208DF803006846FDF70EFE4FF47B
:1029C0008070FEF77CFC1FBD000C014000B585B097
:1029D00001214802FEF786F94FF40040FEF7E6F8C1
:1029E0000020009003904FF46020029000208DF8AA
:1029F00005008DF8040001208DF810006946194883
:102A0000FEF78DFC01211748FEF7B5FC1548FEF7CF
:102A1000D4FC00BF1348FEF7D5FC0128FAD01148BA
:102A2000FEF7DAFC00BF0F48FEF7DBFC0128FAD006
:102A300005B000BD70B504460D462B460122214667
:102A40000848FEF704FD01210648FEF7D4FC00BF4C
:102A500002210448FEF740FE0028F9D00148FEF7A5
:102A60005DFD70BD0024014008B501210420FEF782
:102A700039F90120ADF8000000208DF80300694607
:102A80006A48FDF773FEFFF7A1FF08BD10B50521E9
:102A90000020FFF7CFFF10BD70B50024002507E030
:102AA000FFF7F4FF04440520FFF77EFD681CC5B264
:102AB0000A2DF5DB0A20B4FBF0F4A0B270BD2DE9BD
:102AC000F04F91B0002400200F900E9000250EE0F2
:102AD000FFF7DCFF074608F0A1FF0646214608F095
:102AE00035FE04460520FFF75FFD681CC5B20A2DC0
:102AF000EEDB4F49204608F097FE0446204608F0DA
:102B0000F9FD074600224B4B08F0A0F882464FF033
:102B10006632494B08F0DEFA054607F0A9FF814608
:102B200046494748006809F0BFF80D9008F0E2FDFB
:102B30000546444A444B08F0CDFA07460022434B71
:102B400007F0C8FF824607F093FF0F9049460F98A1
:102B500008F0ACFF0E900E9808F0CCFD05464FF043
:102B600033323B4B08F0B6FACDE90A010E9808F073
:102B7000C1FD074688460E9808F0BCFD0546354A5B
:102B8000354B08F0A7FA82463A46434608F0A2FAC7
:102B9000CDE906010E9808F0ADFD82468B460E98F1
:102BA00008F0A8FDCDE900010E9808F0A3FD054648
:102BB0002A4A2B4B08F08EFA0746DDE9002308F07D
:102BC00089FA52465B46CDE9020108F083FACDE965
:102BD0000401DDE9062308F0A3FCCDE90801DDE9E5
:102BE0000A2307F077FFCDE90C0107F041FF0E90B3
:102BF0001C490E9808F026FF02D200200E9006E035
:102C000019490E9809F01EF801D217480E900E9837
:102C100008F070FD07460022144B07F05BFF0546E5
:102C200008F0D8F980B211B0BDE8F08F000801407B
:102C30000000204100FEAF4066660A400000C84127
:102C4000400000207B14AE47E17A943F0000F03F43
:102C500033CB7A40EC51B81E85FB5F403D0AD7A3C9
:102C600070AD50400000A04100007A440000E03FF9
:102C700008B501210820FEF735F80120ADF8000065
:102C800010208DF8030003208DF8020069463C48AF
:102C9000FDF76CFD0220ADF8000048208DF8030020
:102CA00069463748FDF762FD01213548FDF70BFE07
:102CB00008BD70B5012033490860FFF757FC0020BC
:102CC0003149C1F88001002400BF2E480068002867
:102CD000FBD1002513E001202A497C310860640003
:102CE000FFF744FC00202849C1F88001254800680E
:102CF00000B1641C0120FFF739FC681CC5B2182D17
:102D0000E9DB01201F497C31086084F40004FFF7EF
:102D10002DFC00201C49C1F88001204670BD10B573
:102D2000FFF7C7FF1949086010BD2DE9F041FFF713
:102D3000C0FF1749086008460068144909688842BE
:102D40001BD91348006813490860084600680F49FA
:102D50000968401A0F4908600846006808F046FEF6
:102D6000804608F0C7FC064600220B4B07F06EFFBA
:102D7000044608F0FFF807490860BDE8F08100004C
:102D8000000C0140048121420080214234000020D7
:102D9000300000203800002000387B40012080F304
:102DA000138800BF00BFC848006800F4E060C7494E
:102DB0000843001DC4490860BFF3408F00BF00BF37
:102DC000FEE708B54FF48050ADF8000003208DF801
:102DD000020014208DF803006946BD48FDF7C6FCCB
:102DE00008BD10B5FFF7EDFF00224FF48051B84841
:102DF000FDF76DFD40F2EE20FFF7B8FB0122110355
:102E0000B348FDF764FD0F20FFF7B0FB10BD08B518
:102E10004FF48050ADF8000003208DF8020004202C
:102E20008DF803006946AA48FDF7A0FC08BD10B55F
:102E30000024FFF7ECFF04E0601CC4B20120FFF7A0
:102E400095FB4FF48051A248FDF723FD08B1C82C33
:102E5000F2DBC82C01DB012010BD002404E0601C63
:102E6000C4B20120FFF782FB4FF480519848FDF770
:102E700010FD08B9F02CF2DBF02C01DB0120EBE7B0
:102E80000020E9E710B5FFF79CFF00224FF48051C6
:102E90008F48FDF71CFD0220FFF768FB012211039C
:102EA0008B48FDF714FDFFF7B2FF0C20FFF75EFB28
:102EB0004FF480518648FDF7ECFC08B1012400E096
:102EC00000243220FFF752FB204610BD70B50026CB
:102ED000012508E0FFF7D6FF0446E00140EA66005E
:102EE000C6B2681CC5B2082DF4DD304670BD70B5A1
:102EF0000446FFF766FF012528E004F00106641090
:102F00008EB100224FF480517148FDF7E0FC0220A1
:102F1000FFF72CFB012211036D48FDF7D8FC3C2084
:102F2000FFF724FB10E000224FF480516848FDF7C2
:102F3000CEFC3C20FFF71AFB012211036448FDF789
:102F4000C6FC0220FFF712FB681CC5B2082DD4DDB9
:102F500070BD10B5FFF745FFFFF769FFCC20FFF705
:102F6000C6FF4420FFF7C3FF10BD08B501210420B0
:102F7000FDF7B8FE4FF48050ADF8000010208DF83A
:102F8000030003208DF8020069465148FDF7EEFB6F
:102F90004FF480514E48FDF796FCFFF722FFFFF7F4
:102FA00046FF08BD2DE9F84FFFF7D3FFFFF719FFE4
:102FB000FFF73DFFCC20FFF79AFFBE20FFF797FFFA
:102FC000FFF784FF8346FFF781FF0446072C08DDE7
:102FD000E043C4B26FEA0B0000F0FF0B4FF0000AB1
:102FE00001E04FF0010AA1464FEA09200FFA80F9EB
:102FF00009EB0B000FFA80F9484608F0F7FC009047
:1030000008F078FB07460022324B08F063F80546CB
:1030100007F0B0FF0FFA80F9BAF1000F02D048466E
:10302000BDE8F88FC9F1000000B2F9E710B500243F
:1030300005E0601CC4B2F02C01D1FFF7AFFEFFF732
:1030400094FF0028F5D110BD70B586B0FFF7AAFF38
:1030500084B2204608F0E2FC05461F4908F0E4FB74
:103060001E49086010231EA20621002004F054FB14
:10307000002C11DA1948006808F03CFB05462A4686
:103080000B4619A101A804F0E3FC102301AA0621B4
:10309000322004F041FB10E01048006808F02AFBE1
:1030A00005462A460B4612A101A804F0D1FC1023C4
:1030B00001AA0621322004F02FFB1420FFF774FA36
:1030C0000648006806B070BD0CED00E00000FA058F
:1030D000000801400000E43F0000204140000020C3
:1030E00054656D703A0000002D25322E31660000C7
:1030F0002025322E316600000EB501210420FDF797
:10310000FEFD42F20F70ADF8040041F61F40ADF82D
:1031100000000020ADF80600ADF802006946364810
:10312000FEF7D2FB012211463348FEF744FF01218E
:103130003148FEF725FF0EBD08B51E208DF80000B2
:1031400001208DF801008DF802008DF8030068461B
:10315000FDF743FA08BD08B51C208DF800000120DA
:103160008DF8010002208DF8020001208DF8030087
:103170006846FDF732FA08BD0EB501210846FDF795
:10318000BEFD4CF24F30ADF8040041F61F40ADF8E3
:1031900000000020ADF80600ADF802008DF8080030
:1031A00069464FF08040FEF78FFB01218807FFF74B
:1031B000ADF9012211469007FEF7FDFE00214FF008
:1031C0008040FEF7DDFE0EBD10B5FFF7C4FFFFF730
:1031D000D3FFFFF791FFFFF7AFFF10BD10B501213F
:1031E0000548FFF796F910B1012004490880012134
:1031F0000148FFF79FF910BD000800404A00002079
:1032000038B5FFF75CFCA8490880084600883228DA
:103210000ADA0020A54908600120A549C1F8B801D3
:10322000A249091F086022E09F48008832280FDB6E
:103230009D48008896280BDA01209C4908600020F0
:103240009B49C1F8B80101209849091F08600EE0A8
:1032500095480088B0F5967F09DB01209349086006
:103260009349C1F8B80100209049091F0860102354
:1032700090A20221002004F04FFA10238FA2042113
:10328000002004F049FA10200423009086480288A8
:103290000221242004F0FCF9FFF747FD894800884B
:1032A00089490880102004230090084602881946A6
:1032B000382004F0EDF9FFF7C7FE044608F076FB6E
:1032C0008249087038BD10B54FF4A060FDF780F951
:1032D000FFF734F94FF41650FFF7AAF94FF4E13035
:1032E000FFF7F9F94FF4E130FFF746FAFFF72EFB4D
:1032F000FFF7F6FA04F0A0FAFFF7B6FBFFF7B8FC09
:10330000FFF733FEFFF702FBFFF75EFFFFF707FD56
:103310004FF47A70FFF748F9FFF701FD04F022F946
:1033200010236BA20021084604F0F6F94FF47A70DE
:10333000FFF75BF910BD0024FFF7C5FF73E002F053
:10334000CFF904F00FF9102366A20021084604F01B
:10335000E3F903E04FF4FA70FFF726F967A169A0DB
:1033600002F05FF90028F5D1102372A2042104F0C5
:10337000D3F94FF4FA70FFF717F904F0F3F81023BC
:1033800073A20021084604F0C7F907E05BA15DA025
:1033900002F047F94FF4FA70FFF706F900F079FAF6
:1033A0000028F3D100F02EFD3BE06E480088012894
:1033B00010D16D480078022803D100206A490870B6
:1033C00030E0FFF71DFF00F0A9FC002065490880F0
:1033D00002F008F9002002F061F9044614B1204619
:1033E00000F03BFD61480078012815D1062260A15C
:1033F0006148FFF716FA4FF47A70FFF7D5F8092203
:103400005EA15D48FFF70DFA0020584908705EA1E3
:103410006048FFF71FFA03E000205449087000BF1E
:1034200000BFC2E700BF8AE710B54FF48070FDF718
:1034300035FFD8B10A20FFF7B7F84FF4807156482E
:10344000FDF727FA70B95548007858B900214FF0B8
:103450008040FFF729F801218807FEF791FD012040
:103460004E4908704FF48070FDF729FF10BD10B56C
:1034700001218807FFF74DF888B14FF40051484803
:10348000FDF723FA01203949087000218007FEF773
:1034900077FD002041490870012042490870012150
:1034A0008807FFF747F810BD44000020B48121428F
:1034B000008021425444533A00000000566F6C755E
:1034C0006D653A00380000204600002048000020CA
:1034D000486172647761726520696E6974204F4B30
:1034E00000000000436F6E6E656374204D515454AC
:1034F00073205365727665722E2E2E00434F4E4E0A
:103500004543540041542B43495053544152543D78
:1035100022544350222C226D717474732E6865639B
:103520006C6F7564732E636F6D222C313838330DD8
:103530000A000000436F6E6E656374204D51545451
:1035400020536572766572205375636365737300EB
:10355000446576696365206C6F67696E202E2E2E38
:10356000000000004A0000204C0000205400002011
:1035700041463A33300000000038014041373A30CC
:1035800030303031000000005945535945530D0A81
:103590000000000000480040000C014055000020E1
:1035A0000010014056000020F0B58BB00546002603
:1035B0000024284604F09EFDC7B20DB11C2F02DA8C
:1035C00001200BB0F0BD06E0A85D01A988550020E0
:1035D000A855701CC6B2BE42F6DB002001A9885572
:1035E0000026002455E001A8805D2B2810D008DCBF
:1035F000202814D023282ED0252825D026283FD1B6
:1036000030E02F2812D03D2833D03F2838D114E0A5
:103610002819FCA104F0D8FDE01CC4B236E028193A
:10362000F9A104F0D1FDE01CC4B22FE02819F7A1E4
:1036300004F0CAFDE01CC4B228E02819F4A104F08B
:10364000C3FDE01CC4B221E02819F2A104F0BCFDC6
:10365000E01CC4B21AE02819EFA104F0B5FDE01C8B
:10366000C4B213E02819EDA104F0AEFDE01CC4B211
:103670000CE02819EAA104F0A7FDE01CC4B205E0A3
:1036800001A8805D2855601CC4B200BF00BF701C3B
:10369000C6B2BE42A7DB0020285500BF91E72DE946
:1036A000F04FC9B005460C4616461F460DF5A478E6
:1036B00098E8000F0020489055B14CB1D948864297
:1036C00006D32FB1B9F1000F02D0BAF1780F03DAA7
:1036D000012049B0BDE8F08F402118A804F019FE80
:1036E000384604F007FD05903B4648AA402100906B
:1036F00018A800F0BBFF482106A804F00AFEBBF1A1
:10370000000F09D0C8A03346C9A248218DE8310076
:1037100006A804F0B3F909E0C3A03346CAA24821C1
:103720008DE81101039506A804F0A8F9402128A806
:1037300004F0EFFD06A804F0DDFC059018A804F0E5
:10374000D9FC049028A8009006AA18A8DDE9041363
:1037500000F046FE00204890402138A804F0D9FD32
:1037600028A804F0C7FC059028AB48AA4021009087
:1037700038A800F0DBFE38A8FFF716FFBBF1000FFA
:103780000CD038A8A8A12B46B7A2CDE90046CDE9B8
:1037900002105146484604F071F90CE038A8A2A185
:1037A0002B46BF4ACDE901860094CDE9031051466E
:1037B000484604F063F900208BE72DE9F041ACB0F6
:1037C00001270D250026002405F1F00004F0C2F8C1
:1037D00006461EB938462CB0BDE8F08103E04FF430
:1037E000FA70FEF7E1FEAFA1B0A001F01AFF0028C9
:1037F000F5D10120902108AA0023CDE90032CDE9BE
:103800000210B4A3BF4AC0A1C2A0FFF748FFC4A1E1
:103810000D20CDE9000105F1F00108ABC14A3046A9
:1038200004F02CF9304604F065FC1FFA80F841469C
:10383000304601F01CFFFA2001F030FF044624B1AD
:10384000B9A1204604F020FC0446CCB1002003902E
:10385000B84803A904ABB84ACDE90010B7492046DF
:1038600004F0C2FA04280AD1B248039904ABB24A60
:10387000CDE90010B2A1BA48FEF7ECFF002700BF67
:10388000304604F096F8B7A1B7A001F0CAFE38465A
:10389000A1E730B5B3B000202F9030903190329036
:1038A0000125A02107AA9EA3CDE90032CDE902108F
:1038B00088A3944A94A197A0FFF7F1FE07A892A3CA
:1038C00097A2ADA10090A648FEF7C4FF2FA8002143
:1038D00002910391CDE90410084601214FF47A7357
:1038E0008FA2CDE9001007A987A001F020F80028D9
:1038F00042D1309A91B22F9801F0B9FEFA2001F02E
:10390000CDFE0446002C33D0204600F0DBFF022819
:103910002ED1204601F070F9062823D2DFE800F00E
:1039200003090E13181DA0A18D48FEF793FF002573
:103930001DE0A2A18A48FEF78DFF18E0A6A18848E5
:10394000FEF788FF13E0ADA18548FEF783FF0EE088
:10395000B2A18348FEF77EFF09E0B9A18048FEF7D7
:1039600079FF04E0C1A17E48FEF774FF00BF00BFED
:103970002FA800F05FFF03E0C3A17948FEF76AFFBC
:10398000284633B030BD10B58CB0044630216846AF
:1039900004F0BFFCC5A1204604F088FB3021684636
:1039A00004F0B7FCC7480288C7A1684604F050F885
:1039B0006946204604F008FC3021684604F0A9FC62
:1039C000C6480278C6A1684604F042F86946204617
:1039D00004F0FAFB3021684604F09BFCC7480288DB
:1039E000C7A1684604F034F86946204604F0ECFBB1
:1039F000C9A1204604F0E8FB204604F07BFB80B21E
:103A00000CB010BD25324200253230002532460070
:103A10002533460025323500253233002532360065
:103A2000253344009554415D736861310000000006
:103A300025640A25730A70726F64756374732F2589
:103A4000730A25730000000025640A25730A70724A
:103A50006F64756374732F25732F6465766963656E
:103A6000732F25730A25730076657273696F6E3D37
:103A70002573267265733D70726F64756374732568
:103A800025324625732665743D2564266D65746868
:103A90006F643D2573267369676E3D2573000000D2
:103AA00048C90008434F4E4E4543540041542B43F0
:103AB000495053544152543D22544350222C2231F8
:103AC00038332E3233302E34302E3333222C3830EC
:103AD0000D0A00004E6D707265554E6F525463337F
:103AE00051565251593078335333705A4E6C6436B4
:103AF00056545A565A484530626D343452484D3DFA
:103B00000000000000CF9D746C326A6C57774E55F0
:103B10006E340000323031382D31302D3331000019
:103B20006432000090C900086465766963655F6966
:103B300064000000FC020020EC020020FCC8000829
:103B4000637265617465206465766963653A2025F2
:103B5000732C2025732C2025642C2025730D0A003E
:103B6000004800404F4B000041542B434950434C08
:103B70004F53450D0A0000004F6E654E45545F449B
:103B800065764C696E6B0D0A4E414D453A202573A2
:103B90002C0950524F49443A2025732C094B455962
:103BA0003A25730D0A000000546970733A09C1ACDC
:103BB000BDD3B3C9B9A60D0A000000005741524E4B
:103BC0003A09C1ACBDD3CAA7B0DCA3BAD0ADD2E923
:103BD000B4EDCEF30D0A00005741524E3A09C1AC84
:103BE000BDD3CAA7B0DCA3BAB7C7B7A8B5C4636CC6
:103BF00069656E7469640D0A000000005741524EF9
:103C00003A09C1ACBDD3CAA7B0DCA3BAB7FECEF1A6
:103C1000C6F7CAA7B0DC0D0A000000005741524E9B
:103C20003A09C1ACBDD3CAA7B0DCA3BAD3C3BBA702
:103C3000C3FBBBF2C3DCC2EBB4EDCEF30D0A000054
:103C40005741524E3A09C1ACBDD3CAA7B0DCA3BAA2
:103C5000B7C7B7A8C1B4BDD328B1C8C8E7746F6BE4
:103C6000656EB7C7B7A8290D0A0000004552523A41
:103C700009C1ACBDD3CAA7B0DCA3BACEB4D6AAB42E
:103C8000EDCEF30D0A0000005741524E3A094D5156
:103C900054545F5061636B6574436F6E6E656374FB
:103CA000204661696C65640D0A0000007B2269642E
:103CB000223A22313233222C22706172616D7322DA
:103CC0003A7B00004400002022544453223A7B22D5
:103CD00076616C7565223A25647D2C0048000020D1
:103CE0002274656D7065726174757265223A7B220B
:103CF00076616C7565223A25647D2C0046000020B3
:103D000022766F6C756D65223A7B2276616C7565E3
:103D1000223A25647D0000007D7D000030B5C5B0ED
:103D200000204190429043904490002400254FF49D
:103D3000807101A804F0EDFA01A8FFF724FE04B297
:103D400001AA87A18A48FEF785FD224689A18848F5
:103D5000FEF780FD002C28D041A800232246AFF2B8
:103D600040210090AFF2602001F037F8C8B908E0B8
:103D700001A8415D429A501C429041988154681CB0
:103D800005B2A542F4DB429A91B2419801F06FFC72
:103D900041A800F04FFD7B480078401C794908702D
:103DA00003E079A17248FEF755FD45B030BD70B50E
:103DB00088B005460C4600200490059006900790B8
:103DC00023462A4678A16A48FEF744FD204604F0BF
:103DD00091F9064604A80121002200923346CDE95C
:103DE00001210390224629460A2000F014FF38B929
:103DF000059A91B2049801F03AFC04A800F01AFD6B
:103E000008B070BD00B595B00020119012901390CD
:103E1000149003A80290AFF2F820AFF214336AA214
:103E20003821009003A803F029FE03AA6EA1504890
:103E3000FEF710FD11A8012302AA00210090142012
:103E400001F0D5F838B9129A91B2119801F00FFC2F
:103E500011A800F0EFFC15B000BD2DE9F04F89B0BE
:103E600007460020089007900690059004900025D2
:103E7000002680468146384600F024FD0546032D85
:103E800004D0042D3BD0092D53D144E05C4804A953
:103E900005AA08ABCDE90021029006AA07A9384679
:103EA00001F0DDF90646002E28D18246BDF8140047
:103EB0000899CDE90010BDF8183052A12C48079A96
:103EC000FEF7C8FC089802F07FFB83465CA15846C9
:103ED00002F080FF03905CA1039802F07BFF044690
:103EE00044B1E068012802D1FEF7EEFC02E00020B8
:103EF000FEF7EAFC584601F065FD00BF00BF3846FA
:103F000001F0ADFA30B900201E4908704FA11848E1
:103F1000FEF7A0FC10E0384601F0E8F820B953A104
:103F20001348FEF797FC03E057A11148FEF792FCF7
:103F300002E04FF0FF3600BF00BF01F053FB701CE2
:103F400010B909B0BDE8F08F0F2D01D0032D05D1B8
:103F5000079803F02EFD089803F02BFD00BFF0E753
:103F60002D2D2D2D2D25732D2D2D2D2D0D0A0000E0
:103F7000004800402D2D2D2D2D25642D2D2D2D2D6E
:103F80000D0A00004C0000205741524E3A094544AA
:103F9000505F4E6577427566666572204661696C52
:103FA00065640D0A000000005075626C697368203A
:103FB000546F7069633A2025732C204D73673A2043
:103FC00025730D0A00000000247379732F25732FC9
:103FD00025732F7468696E672F70726F70657274C5
:103FE000792F7365740000005375627363726962A0
:103FF0006520546F7069633A2025730D0A00000034
:1040000058000020746F7069633A2025732C207467
:104010006F7069635F6C656E3A2025642C20706157
:10402000796C6F61643A2025732C207061796C6F14
:1040300061645F6C656E3A2025640D0A0000000023
:10404000706172616D7300006C6564005469707317
:104050003A094D515454205075626C69736820536D
:10406000656E64204F4B0D0A0000000054697073A8
:104070003A094D51545420537562736372696265F5
:10408000204F4B0D0A000000546970733A094D51DE
:10409000545420537562736372696265204572726D
:1040A0000D0A0000F0B50446142C06DA01EA0205F8
:1040B00023EA010685EA060019E0282C04DA81EAE1
:1040C000020787EA030012E03C2C0ADA01EA020543
:1040D00001EA030787EA050602EA030787EA060002
:1040E00005E0502C03DA81EA020787EA0300F0BDFD
:1040F0000146142901DAF7480AE0282901DAF648CE
:1041000006E03C2901DAF54802E0502900DAF448DB
:104110007047F0B5024601209040441EE54301EA95
:10412000050020FA02F601EA0400C2F1200C00FAB0
:104130000CF746EA07031846F0BDF0B50246C2F197
:10414000200C012000FA0CF0441EE54301EA0400B3
:1041500000FA02F601EA0500C2F1200C20FA0CF781
:1041600046EA07031846F0BD2DE9F04FDDB00746DB
:104170008A4615460AF1080909F101094FEACA0001
:104180005B9048464FEAE97109EB91618E11484610
:104190004FEAE97109EB91618911A9EB81115C91F9
:1041A0005C98002800DD761C5C98C0F140008144DA
:1041B000D04604E0002007F8080008F10108B8EB39
:1041C000861FF7DB802007F80A000121C1EB86116A
:1041D0005B9878545B98C0F307200221C1EB8611ED
:1041E00078545B98C0F307400321C1EB86117854E3
:1041F0005B98000E0421C1EB86117854B9485690A3
:10420000B9485790B748C0435890B748C0435990F1
:10421000B6485A904FF00008A5E0002452E0102C58
:1042200032D24FEA881000EB8400385C000601A906
:1042300041F824004FEA881000EB8400401C385CF1
:1042400051F824104FF4803202FB001001A941F80C
:1042500024004FEA881000EB8400801C385C51F881
:104260002410121202FB001001A941F824004FEAA9
:10427000881000EB8400C01C385C51F824100844FE
:1042800001A941F824001CE0502C1AD2E01E01AA1A
:1042900052F82000A4F1080201AB53F8222050404C
:1042A000A4F10E0253F822205040A4F1100253F85A
:1042B000222080EA02010120FFF73FFF01A941F817
:1042C0002400641C502CAAD35698559057985490AB
:1042D00058985390599852905A98519000242AE037
:1042E00005205599FFF729FF83462046529B539A94
:1042F0005499FFF7D7FE584400905199009808440C
:1043000000902046FFF7F4FE00990844009001A8B1
:1043100050F82410009808440090529851905398F7
:1043200052901E205499FFF708FF539055985490CF
:1043300000985590641C502CD2D356995598084437
:104340005690579954980844579058995398084450
:10435000589059995298084459905A99519808443C
:104360005A9008F10108B045FFF657AF5698E8702B
:104370005698000AA8705698000C68705698000E5F
:1043800028705798E8715798000AA8715798000C40
:1043900068715798000E28715898E8725898000A6A
:1043A000A8725898000C68725898000E2872599894
:1043B000E8735998000AA8735998000C68735998C3
:1043C000000E28735A98E8745A98000AA8745A98EC
:1043D000000C68745A98000E28745DB0BDE8F08F28
:1043E0002DE9F04FADF5B36D07460E46924698465F
:1043F000DDF8BC9540254FF0360B5C20CDF89405D8
:10440000002404E000200DF254510855641C402C97
:10441000F8DBAE421DD0AE420FDD4A46314638468B
:10442000FFF7A2FE002405E019F804000DF2545134
:104430000855641C142CF7DB14E0AE4212DA002499
:1044400004E0385D0DF254510855641CB442F8DBA9
:1044500008E0002404E0385D0DF254510855641C56
:10446000AC42F8DB002408E00DF25450005D80EA15
:104470000B000DF214510855641C402CF4DB002491
:1044800005E00DF21450005D15A90855641C402C80
:10449000F7DB002406E01AF8041015AA04F1400026
:1044A0001154641C4445F6DB08EB05014A4615A887
:1044B000FFF75AFE002409E00DF25450005DDDF8CC
:1044C000941548400DF2D4410855641C402CF3DB90
:1044D000002413E09979825AA1EBD96EDCBC1B8FC2
:1044E000D6C162CA0123456789ABCDEFF0E1D2C3E3
:1044F0000DF2D440005D0DF80400641C402CF7DB85
:10450000002406E019F8041004F140000DF8001032
:10451000641C142CF6DB4A4605F114016846FFF7CB
:1045200023FE0DF5B36DBDE8F08F00002DE9F04FCF
:1045300007468946099C00250026AC46A846AA469F
:1045400000211CB900201060BDE8F08F0320B4FBEF
:10455000F0F04FF0030BB4FBFBFE0BFB1E4BBBF16B
:10456000000F02D04FF0010B01E04FF0000B00EB09
:104570000B06B6F1804F05D34FF0FF3010606FF09F
:104580002900E1E7B600701C814500D327B9701CF3
:1045900010606FF02900D7E70320B4FBF0F000EBC8
:1045A00040060025394629E013F801CB13F8018BAA
:1045B00013F801AB87484FEA9C0B10F80B0001F889
:1045C000010B4FEA0C1000EB281000F03F00DFF861
:1045D00004B21BF8000001F8010B4FEA880000EB61
:1045E000AA1000F03F001BF8000001F8010B0AF0D0
:1045F0003F001BF8000001F8010BED1CB542D3D3BE
:10460000A5422DD213F801CB681CA04202D213F8A8
:10461000010B00E0002080466E48CCF3850B10F8BB
:104620000B0001F8010B4FEA0C1000EB281000F012
:104630003F00DFF8A0B11BF8000001F8010B681C77
:10464000A04207D23F2000EA88001BF8000001F8D2
:10465000010B02E03D2001F8010B3D2001F8010BA8
:10466000C81B10600020087000BF6DE72DE9F047FF
:10467000074689469046DDF820C00021002200242C
:1046800000260025002004460246014645E000269B
:1046900001E0491C761C614502D2585C2028F8D004
:1046A000614500D13BE0ACEB0100022807D3585C28
:1046B0000D2804D1481C185C0A2800D12CE0585C55
:1046C0000A2800D128E01EB16FF02B00BDE8F0876A
:1046D000585C3D2806D1601C0446022802D96FF0C0
:1046E0002B00F3E7585C7F2806DC585CDFF8E8A075
:1046F0001AF800007F2802D16FF02B00E6E7585C23
:10470000DFF8D4A01AF80000402803DA14B16FF0E3
:104710002B00DBE7521C00BF491C6145B7D300BF2B
:104720001AB90020C8F80000D0E7D00800EB40001C
:104730004FEA400A02F0070000EB40004000C01DB5
:104740000AEBD002121B0FB1914504D2C8F8002029
:104750006FF02900BAE703240020064602463D46D2
:1047600031E018780D2805D018780A2802D018787A
:10477000202800D125E01878DFF85CA01AF80000A6
:10478000402801D1012000E00020241A1878DFF829
:1047900048A01AF8000066F39F100646501C024617
:1047A00004280DD1002214B1300C05F8010B012CA6
:1047B00002D9300A05F8010B022C01D905F8016B6A
:1047C00000BF491E5B1C0029CBD1E81BC8F80000C4
:1047D00000207BE78ABE0008CABE000870B5044608
:1047E0000E460025206898B901202073304603F05A
:1047F000B1F820602068E0B100206060A66003E0AE
:104800000020216848556D1CA068A842F8D810E027
:104810000220207303E00020216848556D1CA06829
:10482000A842F8D800206060A068B04201D2002001
:10483000206070BD10B50446207B012802D120689D
:1048400003F0B7F8002020606060A060207310BD06
:104850000246002301230DE002F07F000870D20918
:104860002AB1087840F080000870491C01E0184621
:1048700070475B1C042BEFDD4FF0FF30F8E7F0B51D
:1048800004460D462646012300201060002114E056
:10489000775C07F07F07106807FB03001060705C0F
:1048A00000F0800008B9481CF0BDDB01B3F5001F23
:1048B00002D36FF00100F7E7491CA942E8DB4FF093
:1048C000FF30F1E7F8B50446FF2720780511012DE8
:1048D00001DB0E2D01DD3846F8BD032D24D100206B
:1048E00000906A460421601CFFF7C9FF2044461C63
:1048F0000098022803D3207800F0010008B1FF20BF
:10490000EAE77078317840EA0120801C00998842FB
:1049100001D9FF20E0E7F8A1B01C03F0B5FB08B116
:104920000F2700E0032700E02F463846D4E72DE9A3
:10493000FF4F83B082468B469146159C0025002090
:1049400002900F270190484603F0D4FB0FFA80F83D
:10495000B9F1000F03D1012007B0BDE8F08F08F1D5
:104960000200384487B2109808B145F00205129849
:1049700078B145F00405129803F0BCFBC0B2029078
:10498000139803F0B7FB01460298001D0844384411
:1049900087B2119820B1012804D0022808D104E080
:1049A00000BF07E045F00C0504E045F0140501E008
:1049B0000220D1E700BF149808B145F02405BAF1F0
:1049C000000F02D0BBF1000F01D10320C4E745F076
:1049D000C005504603F08EFB0646584603F08AFB9E
:1049E0003044001D384487B239462046FFF7F6FEB2
:1049F000206808B90420AFE73946206803F067FC57
:104A000010216268501C606020688154D4E9002342
:104A1000D118781FFFF71CFF00B201900198002801
:104A200004DA2046FFF706FF052095E76168019844
:104A30000844606000216268501C606020688154F6
:104A400004216268501C6060206881544D216268B6
:104A5000501C60602068815451216268501C606065
:104A60002068815454216268501C60602068815421
:104A70006268501C60602068815404216268501C88
:104A80006060206881546168481C606020684554FB
:104A90000698010A6268501C60602068815406987C
:104AA000C1B26268501C606020688154C8F307215D
:104AB0006268501C6060206881546268501C6060AD
:104AC000206800F80280D4E900128818424649465E
:104AD00003F0C8FA60684044606005F00400B8B3B1
:104AE0000026139808B986A01390129803F002FBD1
:104AF00086B2310A6268501C606020688154626826
:104B0000501C606020688654D4E900128818324630
:104B1000129903F0A7FA606830446060139803F0BC
:104B2000E9FA86B2310A6268501C606020688154DC
:104B30006268501C606020688654D4E900128818AE
:104B40003246139903F08EFA60683044606000BF0B
:104B500005F08000C8B1504603F0CCFA86B2310AA5
:104B60006268501C6060206881546268501C6060FC
:104B700020688654D4E9001288183246514603F062
:104B800071FA60683044606000BF05F04000C8B151
:104B9000584603F0AFFA86B2310A6268501C606072
:104BA000206881546268501C606020688654D4E993
:104BB000001288183246594603F054FA60683044AF
:104BC000606000BF0020C7E610B504460221204601
:104BD000FFF704FE206808B9012010BDE0216268DB
:104BE000501C60602068815400216268501C606025
:104BF000206881540020F0E701464878022801D05F
:104C000001207047887810B18878012801D1C878D0
:104C1000F7E7FF20F5E72DE9FF4F83B083461746FE
:104C20009946139C002500260020029001908046A2
:104C3000BBF1000F03D1012007B0BDE8F08F0026C3
:104C40000AE00498805D232803D00498805D2B2817
:104C500001D10220F0E7761C0498805D0028F0D195
:104C600048F03008119808B148F0010806EB090037
:104C7000851C109820B1012804D002280AD105E033
:104C800000BF09E048F00208AD1C05E048F0040848
:104C9000AD1C01E00320CFE700BF67B338780228DE
:104CA00021D14FF0000A00BF50460AF1010A385CDA
:104CB0007D28F9D1AAF1030A0AF1070002900298AF
:104CC000A9EB000AE81CA0EB0A012046FFF786FDCD
:104CD000206808B90420AFE7EA1CA2EB0A012068AB
:104CE00003F0F5FA1FE0691D2046FFF777FD206805
:104CF00040B90420A0E70AE0246372657100000057
:104D000000000000691D206803F0E1FA0BE0691D56
:104D10002046FFF763FD206808B904208CE7691D71
:104D2000206803F0D4FA6168481C6060206800F8CD
:104D30000180D4E9000281182846FFF789FD01901F
:104D40000198002804DA2046FFF774FD052073E778
:104D50006168019808446060C6F307216268501CCE
:104D60006060206881546268501C606020688654CE
:104D7000D4E9001288183246049903F073F9606888
:104D800030446060109860B14FEA1B216268501C8B
:104D90006060206881546268501C6060206800F880
:104DA00002B0C7B1387802280BD1D4E900128818B4
:104DB0003946029A03F014FA616802980844606068
:104DC00009E0D4E9001288184A46394603F008FA87
:104DD00060684844606000202EE72DE9F04190B003
:104DE00004460D4616469846169F2346F7A23021E4
:104DF00004A8009502F042FE01200021CDE9000147
:104E000033460A4604A9CDE902070A20FFF703FF4B
:104E100018B1012010B0BDE8F0810020FAE72DE9BB
:104E2000F04F85B080460D46914601200490002742
:104E3000002600244FF0000A404603F05BF900F121
:104E40000D0B584602F086FD07461FB9049805B0C1
:104E5000BDE8F08F4246E5A1384602F0F9FD38463C
:104E600003F048F9C6B2F01D00EB050AAAEB0500F5
:104E700002F070FD044624B9384602F09AFD049809
:104E8000E5E70220207000206070A67032463946A7
:104E9000E01C03F0A5F9290EF01C2154C5F30741CD
:104EA000301D2154C5F30721701D2154B01D255418
:104EB00001200021CDE9000153462246CFA1CDE9D2
:104EC00002090A20FFF7A7FE08B90020049038461F
:104ED00002F06FFD204602F06CFD0498B7E72DE963
:104EE000F84380460C4615461E462F2108F1060061
:104EF00003F0AEF807460020009017B90120BDE886
:104F0000F8837F1C6A46042108F10100FFF7B7FC13
:104F1000252002F01FFD2060206808B90220EEE77E
:104F20002521206803F0D3F924223946206803F0B4
:104F300057F9243700982C3830803188481C02F00B
:104F400009FD2860286820B9206802F032FD03209E
:104F5000D5E73288511C286803F0B9F93288394600
:104F6000286803F03DF90020C9E72DE9FF5F0746F7
:104F70000D469046384603F0BDF886B2284603F049
:104F8000B9F81FFA80FA4FF00009F01D02F0E2FCB8
:104F900004461CB9012004B0BDE8F09FF11D204675
:104FA00003F095F996A0016821608088A0803246C0
:104FB0003946204603F056F8284603F09BF883460E
:104FC0000120002100915B462A46CDE902080191AB
:104FD00021460A20FFF71FFE10B94FF0000901E03B
:104FE0004FF00109204602F0E4FC4846D3E72DE9E2
:104FF000FF5F8046174699460E9C0026B246B34690
:105000000025B8F1000F03D1012004B0BDE8F09FE6
:105010000BE057F8250008B90220F6E757F82500FD
:1050200003F068F80644681CC5B24D45F1DB09EB96
:105030004900801C00EB060A0AF105012046FFF733
:10504000CDFB206808B90320DFE782216268501C8D
:10505000606020688154D4E9000281185046FFF74F
:10506000F7FB0FFA80FBBBF1000F04DA2046FFF7D5
:10507000E1FB0420C9E76068584460604FEA1821EA
:105080006268501C6060206881546268501C6060D7
:10509000206800F80280002524E057F8250003F07E
:1050A00029F80646C6F307216268501C6060206834
:1050B00081546268501C606020688654D4E90023E3
:1050C000D01857F82510324602F0CCFF6068304403
:1050D00060600198C1B26268501C606020688154B1
:1050E000681CC5B24D45D8DB00208EE70146FF2085
:1050F0008A78A2B9CA78142A11D10A7932B1012A60
:1051000005D0022A04D0802A06D103E000BF00BFE8
:10511000002003E0012001E0022000BF00BF704733
:105120002DE9F05F80460F4691461C460026B246A8
:10513000B3460025B8F1000F02D10120BDE8F09F71
:105140000BE057F8250008B90220F7E757F82500CB
:1051500002F0D0FF0644681CC5B24D45F1DB0220C9
:1051600000EB490000EB060A0AF105012046FFF7B3
:1051700035FB206808B90320E0E7A2216268501CD3
:10518000606020688154D4E9000281185046FFF71E
:105190005FFB0FFA80FBBBF1000F04DA2046FFF73C
:1051A00049FB0420CAE76068584460604FEA182150
:1051B0006268501C6060206881546268501C6060A6
:1051C000206800F8028000253CE000002473797319
:1051D0002F25732F25732F7468696E672F70726F78
:1051E00070657274792F706F737400007B22647322
:1051F0005F6964223A222573227D000024647000D6
:1052000024637273702F000057F8250002F072FFBC
:105210000646C6F307216268501C6060206881540E
:105220006268501C606020688654D4E90023D0185E
:1052300057F82510324602F015FF60683044606070
:10524000681CC5B24D45DFDB002077E70146012031
:105250008A781AB9CA781E2A00D1002070472DE931
:10526000FC5F81460D4614461E46DDE90C8B99F81D
:10527000000000F00F0A002001900AF008000090E2
:10528000CAF341008BF8000001AA042109F10100D2
:10529000FFF7F5FA4844471C0198022802D30AF0A8
:1052A000010010B1FF20BDE8FC9F7878397840EA12
:1052B000012020802088801C0199884201D9FF208C
:1052C000F1E7AFF2CC51B81C02F0DEFE08B10F20BE
:1052D000E9E79BF8000020B101283DD0022877D1F2
:1052E0003BE0009808B1FF20DDE72188481C02F070
:1052F00031FB2860286808B9FF20D4E72288511CB8
:10530000286802F0E4FF2288B91C286802F068FFD0
:105310000198801E2188401AA8F80000B8F80010F3
:10532000481C02F017FB3060306820B9286802F092
:1053300040FBFF20B7E7B8F80020511C306802F0AE
:10534000C6FFB8F80020B4F800C0BB1C0CEB03018A
:10535000306802F045FF4FE000BF2088801C0199B3
:10536000884201D9FF209EE72088C01C395C208834
:10537000801C385C41EA00210E9801800E9808B923
:10538000FF2090E72188481C02F0E4FA2860286892
:1053900008B9FF2087E72288511C286802F097FF90
:1053A0002288B91C286802F01BFF0198001F218881
:1053B000401AA8F80000B8F80010481C02F0CAFA19
:1053C0003060306828B9286802F0F3FAFF206AE7F5
:1053D00010E0B8F80020511C306802F078FFB8F8EF
:1053E0000020B4F800C03B1D0CEB0301306802F054
:1053F000F7FE01E0FF2056E700BF2B21284602F010
:1054000027FE20B92321284602F022FE08B1FF2002
:1054100049E7002047E770B505460C4604212046C1
:10542000FFF7DCF9206808B9012070BD40216268EF
:10543000501C60602068815402216268501C6060CA
:105440002068815429126268501C60602068815471
:105450006268501C6060206885540020E5E70146C2
:105460004878022801D001207047887820B9C87890
:105470000A2801D10020F7E70120F5E770B50546BD
:105480000C4604212046FFF7A9F9206808B901203D
:1054900070BD50216268501C6060206881540221F8
:1054A0006268501C60602068815429126268501C38
:1054B0006060206881546268501C60602068855478
:1054C0000020E5E701464878022801D00120704716
:1054D000887820B9C8780A2801D10020F7E7012090
:1054E000F5E770B505460C4604212046FFF776F92E
:1054F000206808B9012070BD62216268501C60609C
:105500002068815402216268501C606020688154C8
:1055100029126268501C6060206881546268501CC7
:105520006060206885540020E5E702465078022834
:1055300001D0012070479078B0EB112F05D1D078C1
:10554000CBB2984201D10020F4E70120F2E770B518
:1055500005460C4604212046FFF740F9206808B9AB
:10556000012070BD70216268501C60602068815409
:1055700002216268501C60602068815429126268B0
:10558000501C6060206881546268501C6060206814
:1055900085540020E5E701464878022801D0012023
:1055A0007047887820B9C8780A2801D10020F7E729
:1055B0000120F5E710B5044602212046FFF70EF959
:1055C000206808B9012010BDC0216268501C6060CD
:1055D0002068815400216268501C606020688154FA
:1055E0000020F0E710B54FF40071824802F06FFE22
:1055F00000208149088010BD7F48008808B901203B
:1056000070477D4800887D490988884203D1002081
:1056100079490880F4E778480088784908800120B3
:10562000EEE72DE9F04104460D46C826204602F07B
:1056300061FD87B23A4621467148FDF7F2F80FE066
:10564000FFF7DAFF48B929466A4802F01DFD20B18C
:10565000FFF7C8FF0020BDE8F0810A20FCF7A4FF97
:105660003000A6F10101CEB2EAD10120F3E730B556
:1056700089B004460D46FFF7B5FF2A4661A101A88F
:1056800002F0E6F963A101A8FFF7CBFF20B92A4693
:1056900021465B48FDF7C5F809B030BD70B5054639
:1056A000002400BFFFF7A8FF80B95BA1514802F0BA
:1056B000EBFC044654B13A21204602F0C9FC0446F2
:1056C00014B1641C204670BD0020FCE70520FCF7E7
:1056D0006BFF2800A5F101018DB2E3D100BFF2E715
:1056E00010B5FFF77FFF4EA14F48FDF7B3F801F06B
:1056F00039FF08234DA20021084602F00DF803E00F
:105700004FF4FA70FCF750FF4AA14BA0FFF789FF56
:105710000028F5D14AA14448FDF79CF808234BA284
:105720000221002001F0F8FF03E04FF4FA70FCF7CB
:105730003BFF40A148A0FFF774FF0028F5D14AA124
:105740003948FDF787F808234BA20421002001F017
:10575000E3FF03E04FF4FA70FCF726FF35A14AA0FF
:10576000FFF75FFF0028F5D14BA12F48FDF772F836
:1057700008234CA20621002001F0CEFF03E04FF4E5
:10578000FA70FCF711FF4AA14BA0FFF74AFF00286F
:10579000F5D151A12448FDF75DF801F0E3FE102397
:1057A00053A20021084601F0B7FF4FF4FA70FCF74E
:1057B000FBFE10BD10B540F225511148FBF7B6FCB9
:1057C000B8B10D480088B0F5007F02D300200A4927
:1057D00008800B48001D0088C1B207480288008875
:1057E000401C054B18800348815420210448FBF7D6
:1057F00094FC10BD2C0300205A0000205C00002007
:105800000044004041542B43495053454E443D25EC
:10581000640D0A003E0000004950442C00000000C6
:10582000312E2041540D0A0000480040312E4154D1
:105830002E2E2E004F4B000041540D0A0000000098
:10584000322E2043574D4F44450D0A00322E435708
:105850004D4F44452E2E2E0041542B43574D4F445F
:10586000453D310D0A000000332E2041542B435793
:10587000444843500D0A0000332E41542B435744F3
:105880004843502E2E2E000041542B43574448438A
:10589000503D312C310D0A00342E2043574A4150DF
:1058A0000D0A0000342E43574A41502E2E2E000080
:1058B000474F54204950000041542B43574A415010
:1058C0003D225971717766222C22597171776633A6
:1058D000333331220D0A0000352E20455350383223
:1058E000363620496E6974204F4B0D0A00000000C7
:1058F0004553503832363620496E6974204F4B007C
:10590000FE480068704770B504460D462CB9AC429D
:1059100001D0012070BD0020FCE70DB90120F9E79E
:1059200005E0207808B90020F4E7641C6D1C20789D
:1059300002F066F80646287802F062F88642F0D057
:10594000207802F05DF80646287802F059F8301AFF
:10595000E0E770B50446204602F0CCFB451C284623
:10596000E74909688847060000D170BD2A462146EC
:10597000304602F035FC3046F7E730B9E149E04AFD
:105980001160E149E14A11607047016809B101689D
:1059900000E0DC49DA4A1160416809B1416800E081
:1059A000D949DA4A116000BFEEE710B52820D44982
:1059B0000968884704461CB12821204602F0A9FC4A
:1059C000204610BD70B5044622E02568A08900F489
:1059D000807020B9A06810B1A068FFF7F3FFA0891C
:1059E00000F4807028B9206918B1C8492069096895
:1059F0008847A08900F4007028B9206A18B1C3490B
:105A0000206A096888472046C049096888472C46AB
:105A1000002CDAD170BD2DE9F04F8BB083468A4659
:105A20000020044605460026B94F002188468946D5
:105A30000990012008909AF800002D2802D1B54F56
:105A40000AF1010A9AF80000302801D10AF1010A8E
:105A50009AF80000312822DB9AF8000039281EDC71
:105A600000BF1AF8011BA1F1300005F0E0FA002296
:105A7000A94BCDE906012046294605F02BFBCDE9CF
:105A80000401DDE9062305F025F804460D469AF8E1
:105A90000000302803DB9AF800003928E1DD9AF88D
:105AA00000002E2830D19AF8010030282CDB9AF81B
:105AB0000100392828DC0AF1010A00BF1AF8011B8D
:105AC000A1F1300005F0B3FA0022934BCDE90601B5
:105AD0002046294605F0FEFACDE90401DDE906235A
